{
	"Fund Me/fundMe.sol": {
		"FundMe": {
			"abi": [
				{
					"inputs": [],
					"stateMutability": "nonpayable",
					"type": "constructor"
				},
				{
					"inputs": [
						{
							"internalType": "address",
							"name": "",
							"type": "address"
						}
					],
					"name": "addressToAmountFunded",
					"outputs": [
						{
							"internalType": "uint256",
							"name": "",
							"type": "uint256"
						}
					],
					"stateMutability": "view",
					"type": "function"
				},
				{
					"inputs": [],
					"name": "fund",
					"outputs": [],
					"stateMutability": "payable",
					"type": "function"
				},
				{
					"inputs": [],
					"name": "minimumUSD",
					"outputs": [
						{
							"internalType": "uint256",
							"name": "",
							"type": "uint256"
						}
					],
					"stateMutability": "view",
					"type": "function"
				},
				{
					"inputs": [],
					"name": "withdraw",
					"outputs": [],
					"stateMutability": "nonpayable",
					"type": "function"
				}
			],
			"devdoc": {
				"kind": "dev",
				"methods": {},
				"version": 1
			},
			"evm": {
				"assembly": "    /* \"Fund Me/fundMe.sol\":144:1158  contract FundMe{... */\n  mstore(0x40, 0xa0)\n    /* \"Fund Me/fundMe.sol\":553:605  constructor(){... */\n  callvalue\n  dup1\n  iszero\n  tag_1\n  jumpi\n  0x00\n  dup1\n  revert\ntag_1:\n  pop\n    /* \"Fund Me/fundMe.sol\":587:597  msg.sender */\n  caller\n    /* \"Fund Me/fundMe.sol\":577:597  i_owner = msg.sender */\n  0xffffffffffffffffffffffffffffffffffffffff\n  and\n  0x80\n  dup2\n  0xffffffffffffffffffffffffffffffffffffffff\n  and\n  dup2\n  mstore\n  pop\n  pop\n    /* \"Fund Me/fundMe.sol\":144:1158  contract FundMe{... */\n  mload(0x80)\n  codecopy(0x00, dataOffset(sub_0), dataSize(sub_0))\n  0x00\n  assignImmutable(\"0x7d4579ab3c781860520f730aa471b37a7366c1c6efb6e34470da23130f5149f7\")\n  return(0x00, dataSize(sub_0))\nstop\n\nsub_0: assembly {\n        /* \"Fund Me/fundMe.sol\":144:1158  contract FundMe{... */\n      mstore(0x40, 0x80)\n      jumpi(tag_1, lt(calldatasize, 0x04))\n      shr(0xe0, calldataload(0x00))\n      dup1\n      0x3430a88c\n      eq\n      tag_2\n      jumpi\n      dup1\n      0x3ccfd60b\n      eq\n      tag_3\n      jumpi\n      dup1\n      0x3e47d6f3\n      eq\n      tag_4\n      jumpi\n      dup1\n      0xb60d4288\n      eq\n      tag_5\n      jumpi\n    tag_1:\n      0x00\n      dup1\n      revert\n        /* \"Fund Me/fundMe.sol\":211:252  uint256 public constant minimumUSD = 5e18 */\n    tag_2:\n      callvalue\n      dup1\n      iszero\n      tag_6\n      jumpi\n      0x00\n      dup1\n      revert\n    tag_6:\n      pop\n      tag_7\n      tag_8\n      jump\t// in\n    tag_7:\n      mload(0x40)\n      tag_9\n      swap2\n      swap1\n      tag_10\n      jump\t// in\n    tag_9:\n      mload(0x40)\n      dup1\n      swap2\n      sub\n      swap1\n      return\n        /* \"Fund Me/fundMe.sol\":866:1153  function withdraw() public {... */\n    tag_3:\n      callvalue\n      dup1\n      iszero\n      tag_11\n      jumpi\n      0x00\n      dup1\n      revert\n    tag_11:\n      pop\n      tag_12\n      tag_13\n      jump\t// in\n    tag_12:\n      stop\n        /* \"Fund Me/fundMe.sol\":292:348  mapping(address => uint256) public addressToAmountFunded */\n    tag_4:\n      callvalue\n      dup1\n      iszero\n      tag_14\n      jumpi\n      0x00\n      dup1\n      revert\n    tag_14:\n      pop\n      tag_15\n      0x04\n      dup1\n      calldatasize\n      sub\n      dup2\n      add\n      swap1\n      tag_16\n      swap2\n      swap1\n      tag_17\n      jump\t// in\n    tag_16:\n      tag_18\n      jump\t// in\n    tag_15:\n      mload(0x40)\n      tag_19\n      swap2\n      swap1\n      tag_10\n      jump\t// in\n    tag_19:\n      mload(0x40)\n      dup1\n      swap2\n      sub\n      swap1\n      return\n        /* \"Fund Me/fundMe.sol\":613:858  function fund() public payable {... */\n    tag_5:\n      tag_20\n      tag_21\n      jump\t// in\n    tag_20:\n      stop\n        /* \"Fund Me/fundMe.sol\":211:252  uint256 public constant minimumUSD = 5e18 */\n    tag_8:\n        /* \"Fund Me/fundMe.sol\":248:252  5e18 */\n      0x4563918244f40000\n        /* \"Fund Me/fundMe.sol\":211:252  uint256 public constant minimumUSD = 5e18 */\n      dup2\n      jump\t// out\n        /* \"Fund Me/fundMe.sol\":866:1153  function withdraw() public {... */\n    tag_13:\n        /* \"Fund Me/fundMe.sol\":909:915  uint i */\n      0x00\n        /* \"Fund Me/fundMe.sol\":904:1005  for (uint i=0; i<funders.length; i++){... */\n    tag_23:\n        /* \"Fund Me/fundMe.sol\":921:928  funders */\n      0x00\n        /* \"Fund Me/fundMe.sol\":921:935  funders.length */\n      dup1\n      sload\n      swap1\n      pop\n        /* \"Fund Me/fundMe.sol\":919:920  i */\n      dup2\n        /* \"Fund Me/fundMe.sol\":919:935  i<funders.length */\n      lt\n        /* \"Fund Me/fundMe.sol\":904:1005  for (uint i=0; i<funders.length; i++){... */\n      iszero\n      tag_24\n      jumpi\n        /* \"Fund Me/fundMe.sol\":992:993  0 */\n      0x00\n        /* \"Fund Me/fundMe.sol\":956:977  addressToAmountFunded */\n      0x01\n        /* \"Fund Me/fundMe.sol\":956:989  addressToAmountFunded[funders[i]] */\n      0x00\n        /* \"Fund Me/fundMe.sol\":978:985  funders */\n      dup1\n        /* \"Fund Me/fundMe.sol\":986:987  i */\n      dup5\n        /* \"Fund Me/fundMe.sol\":978:988  funders[i] */\n      dup2\n      sload\n      dup2\n      lt\n      tag_26\n      jumpi\n      tag_27\n      tag_28\n      jump\t// in\n    tag_27:\n    tag_26:\n      swap1\n      0x00\n      mstore\n      keccak256(0x00, 0x20)\n      add\n      0x00\n      swap1\n      sload\n      swap1\n      0x0100\n      exp\n      swap1\n      div\n      0xffffffffffffffffffffffffffffffffffffffff\n      and\n        /* \"Fund Me/fundMe.sol\":956:989  addressToAmountFunded[funders[i]] */\n      0xffffffffffffffffffffffffffffffffffffffff\n      and\n      0xffffffffffffffffffffffffffffffffffffffff\n      and\n      dup2\n      mstore\n      0x20\n      add\n      swap1\n      dup2\n      mstore\n      0x20\n      add\n      0x00\n      keccak256\n        /* \"Fund Me/fundMe.sol\":956:993  addressToAmountFunded[funders[i]] = 0 */\n      dup2\n      swap1\n      sstore\n      pop\n        /* \"Fund Me/fundMe.sol\":937:940  i++ */\n      dup1\n      dup1\n      tag_30\n      swap1\n      tag_31\n      jump\t// in\n    tag_30:\n      swap2\n      pop\n      pop\n        /* \"Fund Me/fundMe.sol\":904:1005  for (uint i=0; i<funders.length; i++){... */\n      jump(tag_23)\n    tag_24:\n      pop\n        /* \"Fund Me/fundMe.sol\":1039:1040  0 */\n      0x00\n        /* \"Fund Me/fundMe.sol\":1025:1041  new address[](0) */\n      0xffffffffffffffff\n      dup2\n      gt\n      iszero\n      tag_32\n      jumpi\n      tag_33\n      tag_34\n      jump\t// in\n    tag_33:\n    tag_32:\n      mload(0x40)\n      swap1\n      dup1\n      dup3\n      mstore\n      dup1\n      0x20\n      mul\n      0x20\n      add\n      dup3\n      add\n      0x40\n      mstore\n      dup1\n      iszero\n      tag_35\n      jumpi\n      dup2\n      0x20\n      add\n      0x20\n      dup3\n      mul\n      dup1\n      calldatasize\n      dup4\n      calldatacopy\n      dup1\n      dup3\n      add\n      swap2\n      pop\n      pop\n      swap1\n      pop\n    tag_35:\n      pop\n        /* \"Fund Me/fundMe.sol\":1015:1022  funders */\n      0x00\n        /* \"Fund Me/fundMe.sol\":1015:1041  funders = new address[](0) */\n      swap1\n      dup1\n      mload\n      swap1\n      0x20\n      add\n      swap1\n      tag_36\n      swap3\n      swap2\n      swap1\n      tag_37\n      jump\t// in\n    tag_36:\n      pop\n        /* \"Fund Me/fundMe.sol\":1055:1067  bool success */\n      0x00\n        /* \"Fund Me/fundMe.sol\":1072:1079  i_owner */\n      immutable(\"0x7d4579ab3c781860520f730aa471b37a7366c1c6efb6e34470da23130f5149f7\")\n        /* \"Fund Me/fundMe.sol\":1072:1084  i_owner.call */\n      0xffffffffffffffffffffffffffffffffffffffff\n      and\n        /* \"Fund Me/fundMe.sol\":1092:1113  address(this).balance */\n      selfbalance\n        /* \"Fund Me/fundMe.sol\":1072:1118  i_owner.call{value: address(this).balance}(\"\") */\n      mload(0x40)\n      tag_38\n      swap1\n      tag_39\n      jump\t// in\n    tag_38:\n      0x00\n      mload(0x40)\n      dup1\n      dup4\n      sub\n      dup2\n      dup6\n      dup8\n      gas\n      call\n      swap3\n      pop\n      pop\n      pop\n      returndatasize\n      dup1\n      0x00\n      dup2\n      eq\n      tag_42\n      jumpi\n      mload(0x40)\n      swap2\n      pop\n      and(add(returndatasize, 0x3f), not(0x1f))\n      dup3\n      add\n      0x40\n      mstore\n      returndatasize\n      dup3\n      mstore\n      returndatasize\n      0x00\n      0x20\n      dup5\n      add\n      returndatacopy\n      jump(tag_41)\n    tag_42:\n      0x60\n      swap2\n      pop\n    tag_41:\n      pop\n        /* \"Fund Me/fundMe.sol\":1054:1118  (bool success,) = i_owner.call{value: address(this).balance}(\"\") */\n      pop\n      swap1\n      pop\n        /* \"Fund Me/fundMe.sol\":1137:1144  success */\n      dup1\n        /* \"Fund Me/fundMe.sol\":1129:1145  require(success) */\n      tag_43\n      jumpi\n      0x00\n      dup1\n      revert\n    tag_43:\n        /* \"Fund Me/fundMe.sol\":893:1153  {... */\n      pop\n        /* \"Fund Me/fundMe.sol\":866:1153  function withdraw() public {... */\n      jump\t// out\n        /* \"Fund Me/fundMe.sol\":292:348  mapping(address => uint256) public addressToAmountFunded */\n    tag_18:\n      mstore(0x20, 0x01)\n      dup1\n      0x00\n      mstore\n      keccak256(0x00, 0x40)\n      0x00\n      swap2\n      pop\n      swap1\n      pop\n      sload\n      dup2\n      jump\t// out\n        /* \"Fund Me/fundMe.sol\":613:858  function fund() public payable {... */\n    tag_21:\n        /* \"Fund Me/fundMe.sol\":248:252  5e18 */\n      0x4563918244f40000\n        /* \"Fund Me/fundMe.sol\":663:682  msg.value.convert() */\n      tag_45\n        /* \"Fund Me/fundMe.sol\":663:672  msg.value */\n      callvalue\n        /* \"Fund Me/fundMe.sol\":663:680  msg.value.convert */\n      tag_46\n        /* \"Fund Me/fundMe.sol\":663:682  msg.value.convert() */\n      jump\t// in\n    tag_45:\n        /* \"Fund Me/fundMe.sol\":663:696  msg.value.convert() >= minimumUSD */\n      lt\n      iszero\n        /* \"Fund Me/fundMe.sol\":655:723  require(msg.value.convert() >= minimumUSD, \"didn't send enough ETH\") */\n      tag_47\n      jumpi\n      mload(0x40)\n      0x08c379a000000000000000000000000000000000000000000000000000000000\n      dup2\n      mstore\n      0x04\n      add\n      tag_48\n      swap1\n      tag_49\n      jump\t// in\n    tag_48:\n      mload(0x40)\n      dup1\n      swap2\n      sub\n      swap1\n      revert\n    tag_47:\n        /* \"Fund Me/fundMe.sol\":734:741  funders */\n      0x00\n        /* \"Fund Me/fundMe.sol\":747:757  msg.sender */\n      caller\n        /* \"Fund Me/fundMe.sol\":734:758  funders.push(msg.sender) */\n      swap1\n      dup1\n      0x01\n      dup2\n      sload\n      add\n      dup1\n      dup3\n      sstore\n      dup1\n      swap2\n      pop\n      pop\n      0x01\n      swap1\n      sub\n      swap1\n      0x00\n      mstore\n      keccak256(0x00, 0x20)\n      add\n      0x00\n      swap1\n      swap2\n      swap1\n      swap2\n      swap1\n      swap2\n      0x0100\n      exp\n      dup2\n      sload\n      dup2\n      0xffffffffffffffffffffffffffffffffffffffff\n      mul\n      not\n      and\n      swap1\n      dup4\n      0xffffffffffffffffffffffffffffffffffffffff\n      and\n      mul\n      or\n      swap1\n      sstore\n      pop\n        /* \"Fund Me/fundMe.sol\":841:850  msg.value */\n      callvalue\n        /* \"Fund Me/fundMe.sol\":805:826  addressToAmountFunded */\n      0x01\n        /* \"Fund Me/fundMe.sol\":805:838  addressToAmountFunded[msg.sender] */\n      0x00\n        /* \"Fund Me/fundMe.sol\":827:837  msg.sender */\n      caller\n        /* \"Fund Me/fundMe.sol\":805:838  addressToAmountFunded[msg.sender] */\n      0xffffffffffffffffffffffffffffffffffffffff\n      and\n      0xffffffffffffffffffffffffffffffffffffffff\n      and\n      dup2\n      mstore\n      0x20\n      add\n      swap1\n      dup2\n      mstore\n      0x20\n      add\n      0x00\n      keccak256\n      sload\n        /* \"Fund Me/fundMe.sol\":805:850  addressToAmountFunded[msg.sender] + msg.value */\n      tag_51\n      swap2\n      swap1\n      tag_52\n      jump\t// in\n    tag_51:\n        /* \"Fund Me/fundMe.sol\":769:790  addressToAmountFunded */\n      0x01\n        /* \"Fund Me/fundMe.sol\":769:802  addressToAmountFunded[msg.sender] */\n      0x00\n        /* \"Fund Me/fundMe.sol\":791:801  msg.sender */\n      caller\n        /* \"Fund Me/fundMe.sol\":769:802  addressToAmountFunded[msg.sender] */\n      0xffffffffffffffffffffffffffffffffffffffff\n      and\n      0xffffffffffffffffffffffffffffffffffffffff\n      and\n      dup2\n      mstore\n      0x20\n      add\n      swap1\n      dup2\n      mstore\n      0x20\n      add\n      0x00\n      keccak256\n        /* \"Fund Me/fundMe.sol\":769:850  addressToAmountFunded[msg.sender] = addressToAmountFunded[msg.sender] + msg.value */\n      dup2\n      swap1\n      sstore\n      pop\n        /* \"Fund Me/fundMe.sol\":613:858  function fund() public payable {... */\n      jump\t// out\n        /* \"Fund Me/PriceConverter.sol\":480:626  function convert(uint256 amount) internal view returns (uint256){... */\n    tag_46:\n        /* \"Fund Me/PriceConverter.sol\":536:543  uint256 */\n      0x00\n        /* \"Fund Me/PriceConverter.sol\":555:568  uint256 price */\n      dup1\n        /* \"Fund Me/PriceConverter.sol\":571:581  getPrice() */\n      tag_54\n        /* \"Fund Me/PriceConverter.sol\":571:579  getPrice */\n      tag_55\n        /* \"Fund Me/PriceConverter.sol\":571:581  getPrice() */\n      jump\t// in\n    tag_54:\n        /* \"Fund Me/PriceConverter.sol\":555:581  uint256 price = getPrice() */\n      swap1\n      pop\n        /* \"Fund Me/PriceConverter.sol\":614:618  1e18 */\n      0x0de0b6b3a7640000\n        /* \"Fund Me/PriceConverter.sol\":606:612  amount */\n      dup4\n        /* \"Fund Me/PriceConverter.sol\":600:605  price */\n      dup3\n        /* \"Fund Me/PriceConverter.sol\":600:612  price*amount */\n      tag_56\n      swap2\n      swap1\n      tag_57\n      jump\t// in\n    tag_56:\n        /* \"Fund Me/PriceConverter.sol\":599:618  (price*amount)/1e18 */\n      tag_58\n      swap2\n      swap1\n      tag_59\n      jump\t// in\n    tag_58:\n        /* \"Fund Me/PriceConverter.sol\":592:618  return (price*amount)/1e18 */\n      swap2\n      pop\n      pop\n        /* \"Fund Me/PriceConverter.sol\":480:626  function convert(uint256 amount) internal view returns (uint256){... */\n      swap2\n      swap1\n      pop\n      jump\t// out\n        /* \"Fund Me/PriceConverter.sol\":205:472  function getPrice() internal view returns(uint256){... */\n    tag_55:\n        /* \"Fund Me/PriceConverter.sol\":247:254  uint256 */\n      0x00\n        /* \"Fund Me/PriceConverter.sol\":266:297  AggregatorV3Interface priceFeed */\n      dup1\n        /* \"Fund Me/PriceConverter.sol\":322:364  0x694AA1769357215DE4FAC081bf1f309aDC325306 */\n      0x694aa1769357215de4fac081bf1f309adc325306\n        /* \"Fund Me/PriceConverter.sol\":266:365  AggregatorV3Interface priceFeed = AggregatorV3Interface(0x694AA1769357215DE4FAC081bf1f309aDC325306) */\n      swap1\n      pop\n        /* \"Fund Me/PriceConverter.sol\":378:390  int256 price */\n      0x00\n        /* \"Fund Me/PriceConverter.sol\":400:409  priceFeed */\n      dup2\n        /* \"Fund Me/PriceConverter.sol\":400:425  priceFeed.latestRoundData */\n      0xffffffffffffffffffffffffffffffffffffffff\n      and\n      0xfeaf968c\n        /* \"Fund Me/PriceConverter.sol\":400:427  priceFeed.latestRoundData() */\n      mload(0x40)\n      dup2\n      0xffffffff\n      and\n      0xe0\n      shl\n      dup2\n      mstore\n      0x04\n      add\n      0xa0\n      mload(0x40)\n      dup1\n      dup4\n      sub\n      dup2\n      dup7\n      gas\n      staticcall\n      iszero\n      dup1\n      iszero\n      tag_62\n      jumpi\n      returndatasize\n      0x00\n      dup1\n      returndatacopy\n      revert(0x00, returndatasize)\n    tag_62:\n      pop\n      pop\n      pop\n      pop\n      mload(0x40)\n      returndatasize\n      not(0x1f)\n      0x1f\n      dup3\n      add\n      and\n      dup3\n      add\n      dup1\n      0x40\n      mstore\n      pop\n      dup2\n      add\n      swap1\n      tag_63\n      swap2\n      swap1\n      tag_64\n      jump\t// in\n    tag_63:\n        /* \"Fund Me/PriceConverter.sol\":376:427  (,int256 price, , , ) = priceFeed.latestRoundData() */\n      pop\n      pop\n      pop\n      swap2\n      pop\n      pop\n        /* \"Fund Me/PriceConverter.sol\":460:464  1e10 */\n      0x02540be400\n        /* \"Fund Me/PriceConverter.sol\":453:458  price */\n      dup2\n        /* \"Fund Me/PriceConverter.sol\":445:464  uint256(price)*1e10 */\n      tag_65\n      swap2\n      swap1\n      tag_57\n      jump\t// in\n    tag_65:\n        /* \"Fund Me/PriceConverter.sol\":438:464  return uint256(price)*1e10 */\n      swap3\n      pop\n      pop\n      pop\n        /* \"Fund Me/PriceConverter.sol\":205:472  function getPrice() internal view returns(uint256){... */\n      swap1\n      jump\t// out\n    tag_37:\n      dup3\n      dup1\n      sload\n      dup3\n      dup3\n      sstore\n      swap1\n      0x00\n      mstore\n      keccak256(0x00, 0x20)\n      swap1\n      dup2\n      add\n      swap3\n      dup3\n      iszero\n      tag_66\n      jumpi\n      swap2\n      0x20\n      mul\n      dup3\n      add\n    tag_67:\n      dup3\n      dup2\n      gt\n      iszero\n      tag_68\n      jumpi\n      dup3\n      mload\n      dup3\n      exp(0x0100, 0x00)\n      dup2\n      sload\n      dup2\n      0xffffffffffffffffffffffffffffffffffffffff\n      mul\n      not\n      and\n      swap1\n      dup4\n      0xffffffffffffffffffffffffffffffffffffffff\n      and\n      mul\n      or\n      swap1\n      sstore\n      pop\n      swap2\n      0x20\n      add\n      swap2\n      swap1\n      0x01\n      add\n      swap1\n      jump(tag_67)\n    tag_68:\n    tag_66:\n      pop\n      swap1\n      pop\n      tag_69\n      swap2\n      swap1\n      tag_70\n      jump\t// in\n    tag_69:\n      pop\n      swap1\n      jump\t// out\n    tag_70:\n    tag_71:\n      dup1\n      dup3\n      gt\n      iszero\n      tag_72\n      jumpi\n      0x00\n      dup2\n      0x00\n      swap1\n      sstore\n      pop\n      0x01\n      add\n      jump(tag_71)\n    tag_72:\n      pop\n      swap1\n      jump\t// out\n        /* \"#utility.yul\":7:84   */\n    tag_73:\n        /* \"#utility.yul\":44:51   */\n      0x00\n        /* \"#utility.yul\":73:78   */\n      dup2\n        /* \"#utility.yul\":62:78   */\n      swap1\n      pop\n        /* \"#utility.yul\":7:84   */\n      swap2\n      swap1\n      pop\n      jump\t// out\n        /* \"#utility.yul\":90:208   */\n    tag_74:\n        /* \"#utility.yul\":177:201   */\n      tag_101\n        /* \"#utility.yul\":195:200   */\n      dup2\n        /* \"#utility.yul\":177:201   */\n      tag_73\n      jump\t// in\n    tag_101:\n        /* \"#utility.yul\":172:175   */\n      dup3\n        /* \"#utility.yul\":165:202   */\n      mstore\n        /* \"#utility.yul\":90:208   */\n      pop\n      pop\n      jump\t// out\n        /* \"#utility.yul\":214:436   */\n    tag_10:\n        /* \"#utility.yul\":307:311   */\n      0x00\n        /* \"#utility.yul\":345:347   */\n      0x20\n        /* \"#utility.yul\":334:343   */\n      dup3\n        /* \"#utility.yul\":330:348   */\n      add\n        /* \"#utility.yul\":322:348   */\n      swap1\n      pop\n        /* \"#utility.yul\":358:429   */\n      tag_103\n        /* \"#utility.yul\":426:427   */\n      0x00\n        /* \"#utility.yul\":415:424   */\n      dup4\n        /* \"#utility.yul\":411:428   */\n      add\n        /* \"#utility.yul\":402:408   */\n      dup5\n        /* \"#utility.yul\":358:429   */\n      tag_74\n      jump\t// in\n    tag_103:\n        /* \"#utility.yul\":214:436   */\n      swap3\n      swap2\n      pop\n      pop\n      jump\t// out\n        /* \"#utility.yul\":523:640   */\n    tag_76:\n        /* \"#utility.yul\":632:633   */\n      0x00\n        /* \"#utility.yul\":629:630   */\n      dup1\n        /* \"#utility.yul\":622:634   */\n      revert\n        /* \"#utility.yul\":769:895   */\n    tag_78:\n        /* \"#utility.yul\":806:813   */\n      0x00\n        /* \"#utility.yul\":846:888   */\n      0xffffffffffffffffffffffffffffffffffffffff\n        /* \"#utility.yul\":839:844   */\n      dup3\n        /* \"#utility.yul\":835:889   */\n      and\n        /* \"#utility.yul\":824:889   */\n      swap1\n      pop\n        /* \"#utility.yul\":769:895   */\n      swap2\n      swap1\n      pop\n      jump\t// out\n        /* \"#utility.yul\":901:997   */\n    tag_79:\n        /* \"#utility.yul\":938:945   */\n      0x00\n        /* \"#utility.yul\":967:991   */\n      tag_109\n        /* \"#utility.yul\":985:990   */\n      dup3\n        /* \"#utility.yul\":967:991   */\n      tag_78\n      jump\t// in\n    tag_109:\n        /* \"#utility.yul\":956:991   */\n      swap1\n      pop\n        /* \"#utility.yul\":901:997   */\n      swap2\n      swap1\n      pop\n      jump\t// out\n        /* \"#utility.yul\":1003:1125   */\n    tag_80:\n        /* \"#utility.yul\":1076:1100   */\n      tag_111\n        /* \"#utility.yul\":1094:1099   */\n      dup2\n        /* \"#utility.yul\":1076:1100   */\n      tag_79\n      jump\t// in\n    tag_111:\n        /* \"#utility.yul\":1069:1074   */\n      dup2\n        /* \"#utility.yul\":1066:1101   */\n      eq\n        /* \"#utility.yul\":1056:1119   */\n      tag_112\n      jumpi\n        /* \"#utility.yul\":1115:1116   */\n      0x00\n        /* \"#utility.yul\":1112:1113   */\n      dup1\n        /* \"#utility.yul\":1105:1117   */\n      revert\n        /* \"#utility.yul\":1056:1119   */\n    tag_112:\n        /* \"#utility.yul\":1003:1125   */\n      pop\n      jump\t// out\n        /* \"#utility.yul\":1131:1270   */\n    tag_81:\n        /* \"#utility.yul\":1177:1182   */\n      0x00\n        /* \"#utility.yul\":1215:1221   */\n      dup2\n        /* \"#utility.yul\":1202:1222   */\n      calldataload\n        /* \"#utility.yul\":1193:1222   */\n      swap1\n      pop\n        /* \"#utility.yul\":1231:1264   */\n      tag_114\n        /* \"#utility.yul\":1258:1263   */\n      dup2\n        /* \"#utility.yul\":1231:1264   */\n      tag_80\n      jump\t// in\n    tag_114:\n        /* \"#utility.yul\":1131:1270   */\n      swap3\n      swap2\n      pop\n      pop\n      jump\t// out\n        /* \"#utility.yul\":1276:1605   */\n    tag_17:\n        /* \"#utility.yul\":1335:1341   */\n      0x00\n        /* \"#utility.yul\":1384:1386   */\n      0x20\n        /* \"#utility.yul\":1372:1381   */\n      dup3\n        /* \"#utility.yul\":1363:1370   */\n      dup5\n        /* \"#utility.yul\":1359:1382   */\n      sub\n        /* \"#utility.yul\":1355:1387   */\n      slt\n        /* \"#utility.yul\":1352:1471   */\n      iszero\n      tag_116\n      jumpi\n        /* \"#utility.yul\":1390:1469   */\n      tag_117\n      tag_76\n      jump\t// in\n    tag_117:\n        /* \"#utility.yul\":1352:1471   */\n    tag_116:\n        /* \"#utility.yul\":1510:1511   */\n      0x00\n        /* \"#utility.yul\":1535:1588   */\n      tag_118\n        /* \"#utility.yul\":1580:1587   */\n      dup5\n        /* \"#utility.yul\":1571:1577   */\n      dup3\n        /* \"#utility.yul\":1560:1569   */\n      dup6\n        /* \"#utility.yul\":1556:1578   */\n      add\n        /* \"#utility.yul\":1535:1588   */\n      tag_81\n      jump\t// in\n    tag_118:\n        /* \"#utility.yul\":1525:1588   */\n      swap2\n      pop\n        /* \"#utility.yul\":1481:1598   */\n      pop\n        /* \"#utility.yul\":1276:1605   */\n      swap3\n      swap2\n      pop\n      pop\n      jump\t// out\n        /* \"#utility.yul\":1611:1791   */\n    tag_28:\n        /* \"#utility.yul\":1659:1736   */\n      0x4e487b7100000000000000000000000000000000000000000000000000000000\n        /* \"#utility.yul\":1656:1657   */\n      0x00\n        /* \"#utility.yul\":1649:1737   */\n      mstore\n        /* \"#utility.yul\":1756:1760   */\n      0x32\n        /* \"#utility.yul\":1753:1754   */\n      0x04\n        /* \"#utility.yul\":1746:1761   */\n      mstore\n        /* \"#utility.yul\":1780:1784   */\n      0x24\n        /* \"#utility.yul\":1777:1778   */\n      0x00\n        /* \"#utility.yul\":1770:1785   */\n      revert\n        /* \"#utility.yul\":1797:1977   */\n    tag_82:\n        /* \"#utility.yul\":1845:1922   */\n      0x4e487b7100000000000000000000000000000000000000000000000000000000\n        /* \"#utility.yul\":1842:1843   */\n      0x00\n        /* \"#utility.yul\":1835:1923   */\n      mstore\n        /* \"#utility.yul\":1942:1946   */\n      0x11\n        /* \"#utility.yul\":1939:1940   */\n      0x04\n        /* \"#utility.yul\":1932:1947   */\n      mstore\n        /* \"#utility.yul\":1966:1970   */\n      0x24\n        /* \"#utility.yul\":1963:1964   */\n      0x00\n        /* \"#utility.yul\":1956:1971   */\n      revert\n        /* \"#utility.yul\":1983:2216   */\n    tag_31:\n        /* \"#utility.yul\":2022:2025   */\n      0x00\n        /* \"#utility.yul\":2045:2069   */\n      tag_122\n        /* \"#utility.yul\":2063:2068   */\n      dup3\n        /* \"#utility.yul\":2045:2069   */\n      tag_73\n      jump\t// in\n    tag_122:\n        /* \"#utility.yul\":2036:2069   */\n      swap2\n      pop\n        /* \"#utility.yul\":2091:2157   */\n      0xffffffffffffffffffffffffffffffffffffffffffffffffffffffffffffffff\n        /* \"#utility.yul\":2084:2089   */\n      dup3\n        /* \"#utility.yul\":2081:2158   */\n      sub\n        /* \"#utility.yul\":2078:2181   */\n      tag_123\n      jumpi\n        /* \"#utility.yul\":2161:2179   */\n      tag_124\n      tag_82\n      jump\t// in\n    tag_124:\n        /* \"#utility.yul\":2078:2181   */\n    tag_123:\n        /* \"#utility.yul\":2208:2209   */\n      0x01\n        /* \"#utility.yul\":2201:2206   */\n      dup3\n        /* \"#utility.yul\":2197:2210   */\n      add\n        /* \"#utility.yul\":2190:2210   */\n      swap1\n      pop\n        /* \"#utility.yul\":1983:2216   */\n      swap2\n      swap1\n      pop\n      jump\t// out\n        /* \"#utility.yul\":2222:2402   */\n    tag_34:\n        /* \"#utility.yul\":2270:2347   */\n      0x4e487b7100000000000000000000000000000000000000000000000000000000\n        /* \"#utility.yul\":2267:2268   */\n      0x00\n        /* \"#utility.yul\":2260:2348   */\n      mstore\n        /* \"#utility.yul\":2367:2371   */\n      0x41\n        /* \"#utility.yul\":2364:2365   */\n      0x04\n        /* \"#utility.yul\":2357:2372   */\n      mstore\n        /* \"#utility.yul\":2391:2395   */\n      0x24\n        /* \"#utility.yul\":2388:2389   */\n      0x00\n        /* \"#utility.yul\":2381:2396   */\n      revert\n        /* \"#utility.yul\":2408:2555   */\n    tag_83:\n        /* \"#utility.yul\":2509:2520   */\n      0x00\n        /* \"#utility.yul\":2546:2549   */\n      dup2\n        /* \"#utility.yul\":2531:2549   */\n      swap1\n      pop\n        /* \"#utility.yul\":2408:2555   */\n      swap3\n      swap2\n      pop\n      pop\n      jump\t// out\n        /* \"#utility.yul\":2561:2675   */\n    tag_84:\n      pop\n      jump\t// out\n        /* \"#utility.yul\":2681:3079   */\n    tag_85:\n        /* \"#utility.yul\":2840:2843   */\n      0x00\n        /* \"#utility.yul\":2861:2944   */\n      tag_129\n        /* \"#utility.yul\":2942:2943   */\n      0x00\n        /* \"#utility.yul\":2937:2940   */\n      dup4\n        /* \"#utility.yul\":2861:2944   */\n      tag_83\n      jump\t// in\n    tag_129:\n        /* \"#utility.yul\":2854:2944   */\n      swap2\n      pop\n        /* \"#utility.yul\":2953:3046   */\n      tag_130\n        /* \"#utility.yul\":3042:3045   */\n      dup3\n        /* \"#utility.yul\":2953:3046   */\n      tag_84\n      jump\t// in\n    tag_130:\n        /* \"#utility.yul\":3071:3072   */\n      0x00\n        /* \"#utility.yul\":3066:3069   */\n      dup3\n        /* \"#utility.yul\":3062:3073   */\n      add\n        /* \"#utility.yul\":3055:3073   */\n      swap1\n      pop\n        /* \"#utility.yul\":2681:3079   */\n      swap2\n      swap1\n      pop\n      jump\t// out\n        /* \"#utility.yul\":3085:3464   */\n    tag_39:\n        /* \"#utility.yul\":3269:3272   */\n      0x00\n        /* \"#utility.yul\":3291:3438   */\n      tag_132\n        /* \"#utility.yul\":3434:3437   */\n      dup3\n        /* \"#utility.yul\":3291:3438   */\n      tag_85\n      jump\t// in\n    tag_132:\n        /* \"#utility.yul\":3284:3438   */\n      swap2\n      pop\n        /* \"#utility.yul\":3455:3458   */\n      dup2\n        /* \"#utility.yul\":3448:3458   */\n      swap1\n      pop\n        /* \"#utility.yul\":3085:3464   */\n      swap2\n      swap1\n      pop\n      jump\t// out\n        /* \"#utility.yul\":3470:3639   */\n    tag_86:\n        /* \"#utility.yul\":3554:3565   */\n      0x00\n        /* \"#utility.yul\":3588:3594   */\n      dup3\n        /* \"#utility.yul\":3583:3586   */\n      dup3\n        /* \"#utility.yul\":3576:3595   */\n      mstore\n        /* \"#utility.yul\":3628:3632   */\n      0x20\n        /* \"#utility.yul\":3623:3626   */\n      dup3\n        /* \"#utility.yul\":3619:3633   */\n      add\n        /* \"#utility.yul\":3604:3633   */\n      swap1\n      pop\n        /* \"#utility.yul\":3470:3639   */\n      swap3\n      swap2\n      pop\n      pop\n      jump\t// out\n        /* \"#utility.yul\":3645:3817   */\n    tag_87:\n        /* \"#utility.yul\":3785:3809   */\n      0x6469646e27742073656e6420656e6f7567682045544800000000000000000000\n        /* \"#utility.yul\":3781:3782   */\n      0x00\n        /* \"#utility.yul\":3773:3779   */\n      dup3\n        /* \"#utility.yul\":3769:3783   */\n      add\n        /* \"#utility.yul\":3762:3810   */\n      mstore\n        /* \"#utility.yul\":3645:3817   */\n      pop\n      jump\t// out\n        /* \"#utility.yul\":3823:4189   */\n    tag_88:\n        /* \"#utility.yul\":3965:3968   */\n      0x00\n        /* \"#utility.yul\":3986:4053   */\n      tag_136\n        /* \"#utility.yul\":4050:4052   */\n      0x16\n        /* \"#utility.yul\":4045:4048   */\n      dup4\n        /* \"#utility.yul\":3986:4053   */\n      tag_86\n      jump\t// in\n    tag_136:\n        /* \"#utility.yul\":3979:4053   */\n      swap2\n      pop\n        /* \"#utility.yul\":4062:4155   */\n      tag_137\n        /* \"#utility.yul\":4151:4154   */\n      dup3\n        /* \"#utility.yul\":4062:4155   */\n      tag_87\n      jump\t// in\n    tag_137:\n        /* \"#utility.yul\":4180:4182   */\n      0x20\n        /* \"#utility.yul\":4175:4178   */\n      dup3\n        /* \"#utility.yul\":4171:4183   */\n      add\n        /* \"#utility.yul\":4164:4183   */\n      swap1\n      pop\n        /* \"#utility.yul\":3823:4189   */\n      swap2\n      swap1\n      pop\n      jump\t// out\n        /* \"#utility.yul\":4195:4614   */\n    tag_49:\n        /* \"#utility.yul\":4361:4365   */\n      0x00\n        /* \"#utility.yul\":4399:4401   */\n      0x20\n        /* \"#utility.yul\":4388:4397   */\n      dup3\n        /* \"#utility.yul\":4384:4402   */\n      add\n        /* \"#utility.yul\":4376:4402   */\n      swap1\n      pop\n        /* \"#utility.yul\":4448:4457   */\n      dup2\n        /* \"#utility.yul\":4442:4446   */\n      dup2\n        /* \"#utility.yul\":4438:4458   */\n      sub\n        /* \"#utility.yul\":4434:4435   */\n      0x00\n        /* \"#utility.yul\":4423:4432   */\n      dup4\n        /* \"#utility.yul\":4419:4436   */\n      add\n        /* \"#utility.yul\":4412:4459   */\n      mstore\n        /* \"#utility.yul\":4476:4607   */\n      tag_139\n        /* \"#utility.yul\":4602:4606   */\n      dup2\n        /* \"#utility.yul\":4476:4607   */\n      tag_88\n      jump\t// in\n    tag_139:\n        /* \"#utility.yul\":4468:4607   */\n      swap1\n      pop\n        /* \"#utility.yul\":4195:4614   */\n      swap2\n      swap1\n      pop\n      jump\t// out\n        /* \"#utility.yul\":4620:4811   */\n    tag_52:\n        /* \"#utility.yul\":4660:4663   */\n      0x00\n        /* \"#utility.yul\":4679:4699   */\n      tag_141\n        /* \"#utility.yul\":4697:4698   */\n      dup3\n        /* \"#utility.yul\":4679:4699   */\n      tag_73\n      jump\t// in\n    tag_141:\n        /* \"#utility.yul\":4674:4699   */\n      swap2\n      pop\n        /* \"#utility.yul\":4713:4733   */\n      tag_142\n        /* \"#utility.yul\":4731:4732   */\n      dup4\n        /* \"#utility.yul\":4713:4733   */\n      tag_73\n      jump\t// in\n    tag_142:\n        /* \"#utility.yul\":4708:4733   */\n      swap3\n      pop\n        /* \"#utility.yul\":4756:4757   */\n      dup3\n        /* \"#utility.yul\":4753:4754   */\n      dup3\n        /* \"#utility.yul\":4749:4758   */\n      add\n        /* \"#utility.yul\":4742:4758   */\n      swap1\n      pop\n        /* \"#utility.yul\":4777:4780   */\n      dup1\n        /* \"#utility.yul\":4774:4775   */\n      dup3\n        /* \"#utility.yul\":4771:4781   */\n      gt\n        /* \"#utility.yul\":4768:4804   */\n      iszero\n      tag_143\n      jumpi\n        /* \"#utility.yul\":4784:4802   */\n      tag_144\n      tag_82\n      jump\t// in\n    tag_144:\n        /* \"#utility.yul\":4768:4804   */\n    tag_143:\n        /* \"#utility.yul\":4620:4811   */\n      swap3\n      swap2\n      pop\n      pop\n      jump\t// out\n        /* \"#utility.yul\":4817:5227   */\n    tag_57:\n        /* \"#utility.yul\":4857:4864   */\n      0x00\n        /* \"#utility.yul\":4880:4900   */\n      tag_146\n        /* \"#utility.yul\":4898:4899   */\n      dup3\n        /* \"#utility.yul\":4880:4900   */\n      tag_73\n      jump\t// in\n    tag_146:\n        /* \"#utility.yul\":4875:4900   */\n      swap2\n      pop\n        /* \"#utility.yul\":4914:4934   */\n      tag_147\n        /* \"#utility.yul\":4932:4933   */\n      dup4\n        /* \"#utility.yul\":4914:4934   */\n      tag_73\n      jump\t// in\n    tag_147:\n        /* \"#utility.yul\":4909:4934   */\n      swap3\n      pop\n        /* \"#utility.yul\":4969:4970   */\n      dup3\n        /* \"#utility.yul\":4966:4967   */\n      dup3\n        /* \"#utility.yul\":4962:4971   */\n      mul\n        /* \"#utility.yul\":4991:5021   */\n      tag_148\n        /* \"#utility.yul\":5009:5020   */\n      dup2\n        /* \"#utility.yul\":4991:5021   */\n      tag_73\n      jump\t// in\n    tag_148:\n        /* \"#utility.yul\":4980:5021   */\n      swap2\n      pop\n        /* \"#utility.yul\":5170:5171   */\n      dup3\n        /* \"#utility.yul\":5161:5168   */\n      dup3\n        /* \"#utility.yul\":5157:5172   */\n      div\n        /* \"#utility.yul\":5154:5155   */\n      dup5\n        /* \"#utility.yul\":5151:5173   */\n      eq\n        /* \"#utility.yul\":5131:5132   */\n      dup4\n        /* \"#utility.yul\":5124:5133   */\n      iszero\n        /* \"#utility.yul\":5104:5187   */\n      or\n        /* \"#utility.yul\":5081:5220   */\n      tag_149\n      jumpi\n        /* \"#utility.yul\":5200:5218   */\n      tag_150\n      tag_82\n      jump\t// in\n    tag_150:\n        /* \"#utility.yul\":5081:5220   */\n    tag_149:\n        /* \"#utility.yul\":4865:5227   */\n      pop\n        /* \"#utility.yul\":4817:5227   */\n      swap3\n      swap2\n      pop\n      pop\n      jump\t// out\n        /* \"#utility.yul\":5233:5413   */\n    tag_89:\n        /* \"#utility.yul\":5281:5358   */\n      0x4e487b7100000000000000000000000000000000000000000000000000000000\n        /* \"#utility.yul\":5278:5279   */\n      0x00\n        /* \"#utility.yul\":5271:5359   */\n      mstore\n        /* \"#utility.yul\":5378:5382   */\n      0x12\n        /* \"#utility.yul\":5375:5376   */\n      0x04\n        /* \"#utility.yul\":5368:5383   */\n      mstore\n        /* \"#utility.yul\":5402:5406   */\n      0x24\n        /* \"#utility.yul\":5399:5400   */\n      0x00\n        /* \"#utility.yul\":5392:5407   */\n      revert\n        /* \"#utility.yul\":5419:5604   */\n    tag_59:\n        /* \"#utility.yul\":5459:5460   */\n      0x00\n        /* \"#utility.yul\":5476:5496   */\n      tag_153\n        /* \"#utility.yul\":5494:5495   */\n      dup3\n        /* \"#utility.yul\":5476:5496   */\n      tag_73\n      jump\t// in\n    tag_153:\n        /* \"#utility.yul\":5471:5496   */\n      swap2\n      pop\n        /* \"#utility.yul\":5510:5530   */\n      tag_154\n        /* \"#utility.yul\":5528:5529   */\n      dup4\n        /* \"#utility.yul\":5510:5530   */\n      tag_73\n      jump\t// in\n    tag_154:\n        /* \"#utility.yul\":5505:5530   */\n      swap3\n      pop\n        /* \"#utility.yul\":5549:5550   */\n      dup3\n        /* \"#utility.yul\":5539:5574   */\n      tag_155\n      jumpi\n        /* \"#utility.yul\":5554:5572   */\n      tag_156\n      tag_89\n      jump\t// in\n    tag_156:\n        /* \"#utility.yul\":5539:5574   */\n    tag_155:\n        /* \"#utility.yul\":5596:5597   */\n      dup3\n        /* \"#utility.yul\":5593:5594   */\n      dup3\n        /* \"#utility.yul\":5589:5598   */\n      div\n        /* \"#utility.yul\":5584:5598   */\n      swap1\n      pop\n        /* \"#utility.yul\":5419:5604   */\n      swap3\n      swap2\n      pop\n      pop\n      jump\t// out\n        /* \"#utility.yul\":5610:5715   */\n    tag_90:\n        /* \"#utility.yul\":5646:5653   */\n      0x00\n        /* \"#utility.yul\":5686:5708   */\n      0xffffffffffffffffffff\n        /* \"#utility.yul\":5679:5684   */\n      dup3\n        /* \"#utility.yul\":5675:5709   */\n      and\n        /* \"#utility.yul\":5664:5709   */\n      swap1\n      pop\n        /* \"#utility.yul\":5610:5715   */\n      swap2\n      swap1\n      pop\n      jump\t// out\n        /* \"#utility.yul\":5721:5841   */\n    tag_91:\n        /* \"#utility.yul\":5793:5816   */\n      tag_159\n        /* \"#utility.yul\":5810:5815   */\n      dup2\n        /* \"#utility.yul\":5793:5816   */\n      tag_90\n      jump\t// in\n    tag_159:\n        /* \"#utility.yul\":5786:5791   */\n      dup2\n        /* \"#utility.yul\":5783:5817   */\n      eq\n        /* \"#utility.yul\":5773:5835   */\n      tag_160\n      jumpi\n        /* \"#utility.yul\":5831:5832   */\n      0x00\n        /* \"#utility.yul\":5828:5829   */\n      dup1\n        /* \"#utility.yul\":5821:5833   */\n      revert\n        /* \"#utility.yul\":5773:5835   */\n    tag_160:\n        /* \"#utility.yul\":5721:5841   */\n      pop\n      jump\t// out\n        /* \"#utility.yul\":5847:5988   */\n    tag_92:\n        /* \"#utility.yul\":5903:5908   */\n      0x00\n        /* \"#utility.yul\":5934:5940   */\n      dup2\n        /* \"#utility.yul\":5928:5941   */\n      mload\n        /* \"#utility.yul\":5919:5941   */\n      swap1\n      pop\n        /* \"#utility.yul\":5950:5982   */\n      tag_162\n        /* \"#utility.yul\":5976:5981   */\n      dup2\n        /* \"#utility.yul\":5950:5982   */\n      tag_91\n      jump\t// in\n    tag_162:\n        /* \"#utility.yul\":5847:5988   */\n      swap3\n      swap2\n      pop\n      pop\n      jump\t// out\n        /* \"#utility.yul\":5994:6070   */\n    tag_93:\n        /* \"#utility.yul\":6030:6037   */\n      0x00\n        /* \"#utility.yul\":6059:6064   */\n      dup2\n        /* \"#utility.yul\":6048:6064   */\n      swap1\n      pop\n        /* \"#utility.yul\":5994:6070   */\n      swap2\n      swap1\n      pop\n      jump\t// out\n        /* \"#utility.yul\":6076:6196   */\n    tag_94:\n        /* \"#utility.yul\":6148:6171   */\n      tag_165\n        /* \"#utility.yul\":6165:6170   */\n      dup2\n        /* \"#utility.yul\":6148:6171   */\n      tag_93\n      jump\t// in\n    tag_165:\n        /* \"#utility.yul\":6141:6146   */\n      dup2\n        /* \"#utility.yul\":6138:6172   */\n      eq\n        /* \"#utility.yul\":6128:6190   */\n      tag_166\n      jumpi\n        /* \"#utility.yul\":6186:6187   */\n      0x00\n        /* \"#utility.yul\":6183:6184   */\n      dup1\n        /* \"#utility.yul\":6176:6188   */\n      revert\n        /* \"#utility.yul\":6128:6190   */\n    tag_166:\n        /* \"#utility.yul\":6076:6196   */\n      pop\n      jump\t// out\n        /* \"#utility.yul\":6202:6343   */\n    tag_95:\n        /* \"#utility.yul\":6258:6263   */\n      0x00\n        /* \"#utility.yul\":6289:6295   */\n      dup2\n        /* \"#utility.yul\":6283:6296   */\n      mload\n        /* \"#utility.yul\":6274:6296   */\n      swap1\n      pop\n        /* \"#utility.yul\":6305:6337   */\n      tag_168\n        /* \"#utility.yul\":6331:6336   */\n      dup2\n        /* \"#utility.yul\":6305:6337   */\n      tag_94\n      jump\t// in\n    tag_168:\n        /* \"#utility.yul\":6202:6343   */\n      swap3\n      swap2\n      pop\n      pop\n      jump\t// out\n        /* \"#utility.yul\":6349:6471   */\n    tag_96:\n        /* \"#utility.yul\":6422:6446   */\n      tag_170\n        /* \"#utility.yul\":6440:6445   */\n      dup2\n        /* \"#utility.yul\":6422:6446   */\n      tag_73\n      jump\t// in\n    tag_170:\n        /* \"#utility.yul\":6415:6420   */\n      dup2\n        /* \"#utility.yul\":6412:6447   */\n      eq\n        /* \"#utility.yul\":6402:6465   */\n      tag_171\n      jumpi\n        /* \"#utility.yul\":6461:6462   */\n      0x00\n        /* \"#utility.yul\":6458:6459   */\n      dup1\n        /* \"#utility.yul\":6451:6463   */\n      revert\n        /* \"#utility.yul\":6402:6465   */\n    tag_171:\n        /* \"#utility.yul\":6349:6471   */\n      pop\n      jump\t// out\n        /* \"#utility.yul\":6477:6620   */\n    tag_97:\n        /* \"#utility.yul\":6534:6539   */\n      0x00\n        /* \"#utility.yul\":6565:6571   */\n      dup2\n        /* \"#utility.yul\":6559:6572   */\n      mload\n        /* \"#utility.yul\":6550:6572   */\n      swap1\n      pop\n        /* \"#utility.yul\":6581:6614   */\n      tag_173\n        /* \"#utility.yul\":6608:6613   */\n      dup2\n        /* \"#utility.yul\":6581:6614   */\n      tag_96\n      jump\t// in\n    tag_173:\n        /* \"#utility.yul\":6477:6620   */\n      swap3\n      swap2\n      pop\n      pop\n      jump\t// out\n        /* \"#utility.yul\":6626:7597   */\n    tag_64:\n        /* \"#utility.yul\":6729:6735   */\n      0x00\n        /* \"#utility.yul\":6737:6743   */\n      dup1\n        /* \"#utility.yul\":6745:6751   */\n      0x00\n        /* \"#utility.yul\":6753:6759   */\n      dup1\n        /* \"#utility.yul\":6761:6767   */\n      0x00\n        /* \"#utility.yul\":6810:6813   */\n      0xa0\n        /* \"#utility.yul\":6798:6807   */\n      dup7\n        /* \"#utility.yul\":6789:6796   */\n      dup9\n        /* \"#utility.yul\":6785:6808   */\n      sub\n        /* \"#utility.yul\":6781:6814   */\n      slt\n        /* \"#utility.yul\":6778:6898   */\n      iszero\n      tag_175\n      jumpi\n        /* \"#utility.yul\":6817:6896   */\n      tag_176\n      tag_76\n      jump\t// in\n    tag_176:\n        /* \"#utility.yul\":6778:6898   */\n    tag_175:\n        /* \"#utility.yul\":6937:6938   */\n      0x00\n        /* \"#utility.yul\":6962:7025   */\n      tag_177\n        /* \"#utility.yul\":7017:7024   */\n      dup9\n        /* \"#utility.yul\":7008:7014   */\n      dup3\n        /* \"#utility.yul\":6997:7006   */\n      dup10\n        /* \"#utility.yul\":6993:7015   */\n      add\n        /* \"#utility.yul\":6962:7025   */\n      tag_92\n      jump\t// in\n    tag_177:\n        /* \"#utility.yul\":6952:7025   */\n      swap6\n      pop\n        /* \"#utility.yul\":6908:7035   */\n      pop\n        /* \"#utility.yul\":7074:7076   */\n      0x20\n        /* \"#utility.yul\":7100:7163   */\n      tag_178\n        /* \"#utility.yul\":7155:7162   */\n      dup9\n        /* \"#utility.yul\":7146:7152   */\n      dup3\n        /* \"#utility.yul\":7135:7144   */\n      dup10\n        /* \"#utility.yul\":7131:7153   */\n      add\n        /* \"#utility.yul\":7100:7163   */\n      tag_95\n      jump\t// in\n    tag_178:\n        /* \"#utility.yul\":7090:7163   */\n      swap5\n      pop\n        /* \"#utility.yul\":7045:7173   */\n      pop\n        /* \"#utility.yul\":7212:7214   */\n      0x40\n        /* \"#utility.yul\":7238:7302   */\n      tag_179\n        /* \"#utility.yul\":7294:7301   */\n      dup9\n        /* \"#utility.yul\":7285:7291   */\n      dup3\n        /* \"#utility.yul\":7274:7283   */\n      dup10\n        /* \"#utility.yul\":7270:7292   */\n      add\n        /* \"#utility.yul\":7238:7302   */\n      tag_97\n      jump\t// in\n    tag_179:\n        /* \"#utility.yul\":7228:7302   */\n      swap4\n      pop\n        /* \"#utility.yul\":7183:7312   */\n      pop\n        /* \"#utility.yul\":7351:7353   */\n      0x60\n        /* \"#utility.yul\":7377:7441   */\n      tag_180\n        /* \"#utility.yul\":7433:7440   */\n      dup9\n        /* \"#utility.yul\":7424:7430   */\n      dup3\n        /* \"#utility.yul\":7413:7422   */\n      dup10\n        /* \"#utility.yul\":7409:7431   */\n      add\n        /* \"#utility.yul\":7377:7441   */\n      tag_97\n      jump\t// in\n    tag_180:\n        /* \"#utility.yul\":7367:7441   */\n      swap3\n      pop\n        /* \"#utility.yul\":7322:7451   */\n      pop\n        /* \"#utility.yul\":7490:7493   */\n      0x80\n        /* \"#utility.yul\":7517:7580   */\n      tag_181\n        /* \"#utility.yul\":7572:7579   */\n      dup9\n        /* \"#utility.yul\":7563:7569   */\n      dup3\n        /* \"#utility.yul\":7552:7561   */\n      dup10\n        /* \"#utility.yul\":7548:7570   */\n      add\n        /* \"#utility.yul\":7517:7580   */\n      tag_92\n      jump\t// in\n    tag_181:\n        /* \"#utility.yul\":7507:7580   */\n      swap2\n      pop\n        /* \"#utility.yul\":7461:7590   */\n      pop\n        /* \"#utility.yul\":6626:7597   */\n      swap3\n      swap6\n      pop\n      swap3\n      swap6\n      swap1\n      swap4\n      pop\n      jump\t// out\n\n    auxdata: 0xa2646970667358221220408ddbe17524e7a96b1d2701b8c7ab086403900d6622c2dd8529dd8bd993939864736f6c63430008130033\n}\n",
				"bytecode": {
					"linkReferences": {},
					"object": "60a060405234801561001057600080fd5b503373ffffffffffffffffffffffffffffffffffffffff1660808173ffffffffffffffffffffffffffffffffffffffff16815250506080516109e161006060003960006101e301526109e16000f3fe60806040526004361061003f5760003560e01c80633430a88c146100445780633ccfd60b1461006f5780633e47d6f314610086578063b60d4288146100c3575b600080fd5b34801561005057600080fd5b506100596100cd565b6040516100669190610573565b60405180910390f35b34801561007b57600080fd5b506100846100d9565b005b34801561009257600080fd5b506100ad60048036038101906100a891906105f1565b610278565b6040516100ba9190610573565b60405180910390f35b6100cb610290565b005b674563918244f4000081565b60005b60008054905081101561017e576000600160008084815481106101025761010161061e565b5b9060005260206000200160009054906101000a900473ffffffffffffffffffffffffffffffffffffffff1673ffffffffffffffffffffffffffffffffffffffff1673ffffffffffffffffffffffffffffffffffffffff1681526020019081526020016000208190555080806101769061067c565b9150506100dc565b50600067ffffffffffffffff81111561019a576101996106c4565b5b6040519080825280602002602001820160405280156101c85781602001602082028036833780820191505090505b50600090805190602001906101de9291906104b3565b5060007f000000000000000000000000000000000000000000000000000000000000000073ffffffffffffffffffffffffffffffffffffffff164760405161022590610724565b60006040518083038185875af1925050503d8060008114610262576040519150601f19603f3d011682016040523d82523d6000602084013e610267565b606091505b505090508061027557600080fd5b50565b60016020528060005260406000206000915090505481565b674563918244f400006102a2346103d6565b10156102e3576040517f08c379a00000000000000000000000000000000000000000000000000000000081526004016102da90610796565b60405180910390fd5b6000339080600181540180825580915050600190039060005260206000200160009091909190916101000a81548173ffffffffffffffffffffffffffffffffffffffff021916908373ffffffffffffffffffffffffffffffffffffffff16021790555034600160003373ffffffffffffffffffffffffffffffffffffffff1673ffffffffffffffffffffffffffffffffffffffff1681526020019081526020016000205461039191906107b6565b600160003373ffffffffffffffffffffffffffffffffffffffff1673ffffffffffffffffffffffffffffffffffffffff16815260200190815260200160002081905550565b6000806103e161040a565b9050670de0b6b3a764000083826103f891906107ea565b610402919061085b565b915050919050565b60008073694aa1769357215de4fac081bf1f309adc325306905060008173ffffffffffffffffffffffffffffffffffffffff1663feaf968c6040518163ffffffff1660e01b815260040160a060405180830381865afa158015610471573d6000803e3d6000fd5b505050506040513d601f19601f820116820180604052508101906104959190610930565b5050509150506402540be400816104ac91906107ea565b9250505090565b82805482825590600052602060002090810192821561052c579160200282015b8281111561052b5782518260006101000a81548173ffffffffffffffffffffffffffffffffffffffff021916908373ffffffffffffffffffffffffffffffffffffffff160217905550916020019190600101906104d3565b5b509050610539919061053d565b5090565b5b8082111561055657600081600090555060010161053e565b5090565b6000819050919050565b61056d8161055a565b82525050565b60006020820190506105886000830184610564565b92915050565b600080fd5b600073ffffffffffffffffffffffffffffffffffffffff82169050919050565b60006105be82610593565b9050919050565b6105ce816105b3565b81146105d957600080fd5b50565b6000813590506105eb816105c5565b92915050565b6000602082840312156106075761060661058e565b5b6000610615848285016105dc565b91505092915050565b7f4e487b7100000000000000000000000000000000000000000000000000000000600052603260045260246000fd5b7f4e487b7100000000000000000000000000000000000000000000000000000000600052601160045260246000fd5b60006106878261055a565b91507fffffffffffffffffffffffffffffffffffffffffffffffffffffffffffffffff82036106b9576106b861064d565b5b600182019050919050565b7f4e487b7100000000000000000000000000000000000000000000000000000000600052604160045260246000fd5b600081905092915050565b50565b600061070e6000836106f3565b9150610719826106fe565b600082019050919050565b600061072f82610701565b9150819050919050565b600082825260208201905092915050565b7f6469646e27742073656e6420656e6f7567682045544800000000000000000000600082015250565b6000610780601683610739565b915061078b8261074a565b602082019050919050565b600060208201905081810360008301526107af81610773565b9050919050565b60006107c18261055a565b91506107cc8361055a565b92508282019050808211156107e4576107e361064d565b5b92915050565b60006107f58261055a565b91506108008361055a565b925082820261080e8161055a565b915082820484148315176108255761082461064d565b5b5092915050565b7f4e487b7100000000000000000000000000000000000000000000000000000000600052601260045260246000fd5b60006108668261055a565b91506108718361055a565b9250826108815761088061082c565b5b828204905092915050565b600069ffffffffffffffffffff82169050919050565b6108ab8161088c565b81146108b657600080fd5b50565b6000815190506108c8816108a2565b92915050565b6000819050919050565b6108e1816108ce565b81146108ec57600080fd5b50565b6000815190506108fe816108d8565b92915050565b61090d8161055a565b811461091857600080fd5b50565b60008151905061092a81610904565b92915050565b600080600080600060a0868803121561094c5761094b61058e565b5b600061095a888289016108b9565b955050602061096b888289016108ef565b945050604061097c8882890161091b565b935050606061098d8882890161091b565b925050608061099e888289016108b9565b915050929550929590935056fea2646970667358221220408ddbe17524e7a96b1d2701b8c7ab086403900d6622c2dd8529dd8bd993939864736f6c63430008130033",
					"opcodes": "PUSH1 0xA0 PUSH1 0x40 MSTORE CALLVALUE DUP1 ISZERO PUSH2 0x10 JUMPI PUSH1 0x0 DUP1 REVERT JUMPDEST POP CALLER PUSH20 0xFFFFFFFFFFFFFFFFFFFFFFFFFFFFFFFFFFFFFFFF AND PUSH1 0x80 DUP2 PUSH20 0xFFFFFFFFFFFFFFFFFFFFFFFFFFFFFFFFFFFFFFFF AND DUP2 MSTORE POP POP PUSH1 0x80 MLOAD PUSH2 0x9E1 PUSH2 0x60 PUSH1 0x0 CODECOPY PUSH1 0x0 PUSH2 0x1E3 ADD MSTORE PUSH2 0x9E1 PUSH1 0x0 RETURN INVALID PUSH1 0x80 PUSH1 0x40 MSTORE PUSH1 0x4 CALLDATASIZE LT PUSH2 0x3F JUMPI PUSH1 0x0 CALLDATALOAD PUSH1 0xE0 SHR DUP1 PUSH4 0x3430A88C EQ PUSH2 0x44 JUMPI DUP1 PUSH4 0x3CCFD60B EQ PUSH2 0x6F JUMPI DUP1 PUSH4 0x3E47D6F3 EQ PUSH2 0x86 JUMPI DUP1 PUSH4 0xB60D4288 EQ PUSH2 0xC3 JUMPI JUMPDEST PUSH1 0x0 DUP1 REVERT JUMPDEST CALLVALUE DUP1 ISZERO PUSH2 0x50 JUMPI PUSH1 0x0 DUP1 REVERT JUMPDEST POP PUSH2 0x59 PUSH2 0xCD JUMP JUMPDEST PUSH1 0x40 MLOAD PUSH2 0x66 SWAP2 SWAP1 PUSH2 0x573 JUMP JUMPDEST PUSH1 0x40 MLOAD DUP1 SWAP2 SUB SWAP1 RETURN JUMPDEST CALLVALUE DUP1 ISZERO PUSH2 0x7B JUMPI PUSH1 0x0 DUP1 REVERT JUMPDEST POP PUSH2 0x84 PUSH2 0xD9 JUMP JUMPDEST STOP JUMPDEST CALLVALUE DUP1 ISZERO PUSH2 0x92 JUMPI PUSH1 0x0 DUP1 REVERT JUMPDEST POP PUSH2 0xAD PUSH1 0x4 DUP1 CALLDATASIZE SUB DUP2 ADD SWAP1 PUSH2 0xA8 SWAP2 SWAP1 PUSH2 0x5F1 JUMP JUMPDEST PUSH2 0x278 JUMP JUMPDEST PUSH1 0x40 MLOAD PUSH2 0xBA SWAP2 SWAP1 PUSH2 0x573 JUMP JUMPDEST PUSH1 0x40 MLOAD DUP1 SWAP2 SUB SWAP1 RETURN JUMPDEST PUSH2 0xCB PUSH2 0x290 JUMP JUMPDEST STOP JUMPDEST PUSH8 0x4563918244F40000 DUP2 JUMP JUMPDEST PUSH1 0x0 JUMPDEST PUSH1 0x0 DUP1 SLOAD SWAP1 POP DUP2 LT ISZERO PUSH2 0x17E JUMPI PUSH1 0x0 PUSH1 0x1 PUSH1 0x0 DUP1 DUP5 DUP2 SLOAD DUP2 LT PUSH2 0x102 JUMPI PUSH2 0x101 PUSH2 0x61E JUMP JUMPDEST JUMPDEST SWAP1 PUSH1 0x0 MSTORE PUSH1 0x20 PUSH1 0x0 KECCAK256 ADD PUSH1 0x0 SWAP1 SLOAD SWAP1 PUSH2 0x100 EXP SWAP1 DIV PUSH20 0xFFFFFFFFFFFFFFFFFFFFFFFFFFFFFFFFFFFFFFFF AND PUSH20 0xFFFFFFFFFFFFFFFFFFFFFFFFFFFFFFFFFFFFFFFF AND PUSH20 0xFFFFFFFFFFFFFFFFFFFFFFFFFFFFFFFFFFFFFFFF AND DUP2 MSTORE PUSH1 0x20 ADD SWAP1 DUP2 MSTORE PUSH1 0x20 ADD PUSH1 0x0 KECCAK256 DUP2 SWAP1 SSTORE POP DUP1 DUP1 PUSH2 0x176 SWAP1 PUSH2 0x67C JUMP JUMPDEST SWAP2 POP POP PUSH2 0xDC JUMP JUMPDEST POP PUSH1 0x0 PUSH8 0xFFFFFFFFFFFFFFFF DUP2 GT ISZERO PUSH2 0x19A JUMPI PUSH2 0x199 PUSH2 0x6C4 JUMP JUMPDEST JUMPDEST PUSH1 0x40 MLOAD SWAP1 DUP1 DUP3 MSTORE DUP1 PUSH1 0x20 MUL PUSH1 0x20 ADD DUP3 ADD PUSH1 0x40 MSTORE DUP1 ISZERO PUSH2 0x1C8 JUMPI DUP2 PUSH1 0x20 ADD PUSH1 0x20 DUP3 MUL DUP1 CALLDATASIZE DUP4 CALLDATACOPY DUP1 DUP3 ADD SWAP2 POP POP SWAP1 POP JUMPDEST POP PUSH1 0x0 SWAP1 DUP1 MLOAD SWAP1 PUSH1 0x20 ADD SWAP1 PUSH2 0x1DE SWAP3 SWAP2 SWAP1 PUSH2 0x4B3 JUMP JUMPDEST POP PUSH1 0x0 PUSH32 0x0 PUSH20 0xFFFFFFFFFFFFFFFFFFFFFFFFFFFFFFFFFFFFFFFF AND SELFBALANCE PUSH1 0x40 MLOAD PUSH2 0x225 SWAP1 PUSH2 0x724 JUMP JUMPDEST PUSH1 0x0 PUSH1 0x40 MLOAD DUP1 DUP4 SUB DUP2 DUP6 DUP8 GAS CALL SWAP3 POP POP POP RETURNDATASIZE DUP1 PUSH1 0x0 DUP2 EQ PUSH2 0x262 JUMPI PUSH1 0x40 MLOAD SWAP2 POP PUSH1 0x1F NOT PUSH1 0x3F RETURNDATASIZE ADD AND DUP3 ADD PUSH1 0x40 MSTORE RETURNDATASIZE DUP3 MSTORE RETURNDATASIZE PUSH1 0x0 PUSH1 0x20 DUP5 ADD RETURNDATACOPY PUSH2 0x267 JUMP JUMPDEST PUSH1 0x60 SWAP2 POP JUMPDEST POP POP SWAP1 POP DUP1 PUSH2 0x275 JUMPI PUSH1 0x0 DUP1 REVERT JUMPDEST POP JUMP JUMPDEST PUSH1 0x1 PUSH1 0x20 MSTORE DUP1 PUSH1 0x0 MSTORE PUSH1 0x40 PUSH1 0x0 KECCAK256 PUSH1 0x0 SWAP2 POP SWAP1 POP SLOAD DUP2 JUMP JUMPDEST PUSH8 0x4563918244F40000 PUSH2 0x2A2 CALLVALUE PUSH2 0x3D6 JUMP JUMPDEST LT ISZERO PUSH2 0x2E3 JUMPI PUSH1 0x40 MLOAD PUSH32 0x8C379A000000000000000000000000000000000000000000000000000000000 DUP2 MSTORE PUSH1 0x4 ADD PUSH2 0x2DA SWAP1 PUSH2 0x796 JUMP JUMPDEST PUSH1 0x40 MLOAD DUP1 SWAP2 SUB SWAP1 REVERT JUMPDEST PUSH1 0x0 CALLER SWAP1 DUP1 PUSH1 0x1 DUP2 SLOAD ADD DUP1 DUP3 SSTORE DUP1 SWAP2 POP POP PUSH1 0x1 SWAP1 SUB SWAP1 PUSH1 0x0 MSTORE PUSH1 0x20 PUSH1 0x0 KECCAK256 ADD PUSH1 0x0 SWAP1 SWAP2 SWAP1 SWAP2 SWAP1 SWAP2 PUSH2 0x100 EXP DUP2 SLOAD DUP2 PUSH20 0xFFFFFFFFFFFFFFFFFFFFFFFFFFFFFFFFFFFFFFFF MUL NOT AND SWAP1 DUP4 PUSH20 0xFFFFFFFFFFFFFFFFFFFFFFFFFFFFFFFFFFFFFFFF AND MUL OR SWAP1 SSTORE POP CALLVALUE PUSH1 0x1 PUSH1 0x0 CALLER PUSH20 0xFFFFFFFFFFFFFFFFFFFFFFFFFFFFFFFFFFFFFFFF AND PUSH20 0xFFFFFFFFFFFFFFFFFFFFFFFFFFFFFFFFFFFFFFFF AND DUP2 MSTORE PUSH1 0x20 ADD SWAP1 DUP2 MSTORE PUSH1 0x20 ADD PUSH1 0x0 KECCAK256 SLOAD PUSH2 0x391 SWAP2 SWAP1 PUSH2 0x7B6 JUMP JUMPDEST PUSH1 0x1 PUSH1 0x0 CALLER PUSH20 0xFFFFFFFFFFFFFFFFFFFFFFFFFFFFFFFFFFFFFFFF AND PUSH20 0xFFFFFFFFFFFFFFFFFFFFFFFFFFFFFFFFFFFFFFFF AND DUP2 MSTORE PUSH1 0x20 ADD SWAP1 DUP2 MSTORE PUSH1 0x20 ADD PUSH1 0x0 KECCAK256 DUP2 SWAP1 SSTORE POP JUMP JUMPDEST PUSH1 0x0 DUP1 PUSH2 0x3E1 PUSH2 0x40A JUMP JUMPDEST SWAP1 POP PUSH8 0xDE0B6B3A7640000 DUP4 DUP3 PUSH2 0x3F8 SWAP2 SWAP1 PUSH2 0x7EA JUMP JUMPDEST PUSH2 0x402 SWAP2 SWAP1 PUSH2 0x85B JUMP JUMPDEST SWAP2 POP POP SWAP2 SWAP1 POP JUMP JUMPDEST PUSH1 0x0 DUP1 PUSH20 0x694AA1769357215DE4FAC081BF1F309ADC325306 SWAP1 POP PUSH1 0x0 DUP2 PUSH20 0xFFFFFFFFFFFFFFFFFFFFFFFFFFFFFFFFFFFFFFFF AND PUSH4 0xFEAF968C PUSH1 0x40 MLOAD DUP2 PUSH4 0xFFFFFFFF AND PUSH1 0xE0 SHL DUP2 MSTORE PUSH1 0x4 ADD PUSH1 0xA0 PUSH1 0x40 MLOAD DUP1 DUP4 SUB DUP2 DUP7 GAS STATICCALL ISZERO DUP1 ISZERO PUSH2 0x471 JUMPI RETURNDATASIZE PUSH1 0x0 DUP1 RETURNDATACOPY RETURNDATASIZE PUSH1 0x0 REVERT JUMPDEST POP POP POP POP PUSH1 0x40 MLOAD RETURNDATASIZE PUSH1 0x1F NOT PUSH1 0x1F DUP3 ADD AND DUP3 ADD DUP1 PUSH1 0x40 MSTORE POP DUP2 ADD SWAP1 PUSH2 0x495 SWAP2 SWAP1 PUSH2 0x930 JUMP JUMPDEST POP POP POP SWAP2 POP POP PUSH5 0x2540BE400 DUP2 PUSH2 0x4AC SWAP2 SWAP1 PUSH2 0x7EA JUMP JUMPDEST SWAP3 POP POP POP SWAP1 JUMP JUMPDEST DUP3 DUP1 SLOAD DUP3 DUP3 SSTORE SWAP1 PUSH1 0x0 MSTORE PUSH1 0x20 PUSH1 0x0 KECCAK256 SWAP1 DUP2 ADD SWAP3 DUP3 ISZERO PUSH2 0x52C JUMPI SWAP2 PUSH1 0x20 MUL DUP3 ADD JUMPDEST DUP3 DUP2 GT ISZERO PUSH2 0x52B JUMPI DUP3 MLOAD DUP3 PUSH1 0x0 PUSH2 0x100 EXP DUP2 SLOAD DUP2 PUSH20 0xFFFFFFFFFFFFFFFFFFFFFFFFFFFFFFFFFFFFFFFF MUL NOT AND SWAP1 DUP4 PUSH20 0xFFFFFFFFFFFFFFFFFFFFFFFFFFFFFFFFFFFFFFFF AND MUL OR SWAP1 SSTORE POP SWAP2 PUSH1 0x20 ADD SWAP2 SWAP1 PUSH1 0x1 ADD SWAP1 PUSH2 0x4D3 JUMP JUMPDEST JUMPDEST POP SWAP1 POP PUSH2 0x539 SWAP2 SWAP1 PUSH2 0x53D JUMP JUMPDEST POP SWAP1 JUMP JUMPDEST JUMPDEST DUP1 DUP3 GT ISZERO PUSH2 0x556 JUMPI PUSH1 0x0 DUP2 PUSH1 0x0 SWAP1 SSTORE POP PUSH1 0x1 ADD PUSH2 0x53E JUMP JUMPDEST POP SWAP1 JUMP JUMPDEST PUSH1 0x0 DUP2 SWAP1 POP SWAP2 SWAP1 POP JUMP JUMPDEST PUSH2 0x56D DUP2 PUSH2 0x55A JUMP JUMPDEST DUP3 MSTORE POP POP JUMP JUMPDEST PUSH1 0x0 PUSH1 0x20 DUP3 ADD SWAP1 POP PUSH2 0x588 PUSH1 0x0 DUP4 ADD DUP5 PUSH2 0x564 JUMP JUMPDEST SWAP3 SWAP2 POP POP JUMP JUMPDEST PUSH1 0x0 DUP1 REVERT JUMPDEST PUSH1 0x0 PUSH20 0xFFFFFFFFFFFFFFFFFFFFFFFFFFFFFFFFFFFFFFFF DUP3 AND SWAP1 POP SWAP2 SWAP1 POP JUMP JUMPDEST PUSH1 0x0 PUSH2 0x5BE DUP3 PUSH2 0x593 JUMP JUMPDEST SWAP1 POP SWAP2 SWAP1 POP JUMP JUMPDEST PUSH2 0x5CE DUP2 PUSH2 0x5B3 JUMP JUMPDEST DUP2 EQ PUSH2 0x5D9 JUMPI PUSH1 0x0 DUP1 REVERT JUMPDEST POP JUMP JUMPDEST PUSH1 0x0 DUP2 CALLDATALOAD SWAP1 POP PUSH2 0x5EB DUP2 PUSH2 0x5C5 JUMP JUMPDEST SWAP3 SWAP2 POP POP JUMP JUMPDEST PUSH1 0x0 PUSH1 0x20 DUP3 DUP5 SUB SLT ISZERO PUSH2 0x607 JUMPI PUSH2 0x606 PUSH2 0x58E JUMP JUMPDEST JUMPDEST PUSH1 0x0 PUSH2 0x615 DUP5 DUP3 DUP6 ADD PUSH2 0x5DC JUMP JUMPDEST SWAP2 POP POP SWAP3 SWAP2 POP POP JUMP JUMPDEST PUSH32 0x4E487B7100000000000000000000000000000000000000000000000000000000 PUSH1 0x0 MSTORE PUSH1 0x32 PUSH1 0x4 MSTORE PUSH1 0x24 PUSH1 0x0 REVERT JUMPDEST PUSH32 0x4E487B7100000000000000000000000000000000000000000000000000000000 PUSH1 0x0 MSTORE PUSH1 0x11 PUSH1 0x4 MSTORE PUSH1 0x24 PUSH1 0x0 REVERT JUMPDEST PUSH1 0x0 PUSH2 0x687 DUP3 PUSH2 0x55A JUMP JUMPDEST SWAP2 POP PUSH32 0xFFFFFFFFFFFFFFFFFFFFFFFFFFFFFFFFFFFFFFFFFFFFFFFFFFFFFFFFFFFFFFFF DUP3 SUB PUSH2 0x6B9 JUMPI PUSH2 0x6B8 PUSH2 0x64D JUMP JUMPDEST JUMPDEST PUSH1 0x1 DUP3 ADD SWAP1 POP SWAP2 SWAP1 POP JUMP JUMPDEST PUSH32 0x4E487B7100000000000000000000000000000000000000000000000000000000 PUSH1 0x0 MSTORE PUSH1 0x41 PUSH1 0x4 MSTORE PUSH1 0x24 PUSH1 0x0 REVERT JUMPDEST PUSH1 0x0 DUP2 SWAP1 POP SWAP3 SWAP2 POP POP JUMP JUMPDEST POP JUMP JUMPDEST PUSH1 0x0 PUSH2 0x70E PUSH1 0x0 DUP4 PUSH2 0x6F3 JUMP JUMPDEST SWAP2 POP PUSH2 0x719 DUP3 PUSH2 0x6FE JUMP JUMPDEST PUSH1 0x0 DUP3 ADD SWAP1 POP SWAP2 SWAP1 POP JUMP JUMPDEST PUSH1 0x0 PUSH2 0x72F DUP3 PUSH2 0x701 JUMP JUMPDEST SWAP2 POP DUP2 SWAP1 POP SWAP2 SWAP1 POP JUMP JUMPDEST PUSH1 0x0 DUP3 DUP3 MSTORE PUSH1 0x20 DUP3 ADD SWAP1 POP SWAP3 SWAP2 POP POP JUMP JUMPDEST PUSH32 0x6469646E27742073656E6420656E6F7567682045544800000000000000000000 PUSH1 0x0 DUP3 ADD MSTORE POP JUMP JUMPDEST PUSH1 0x0 PUSH2 0x780 PUSH1 0x16 DUP4 PUSH2 0x739 JUMP JUMPDEST SWAP2 POP PUSH2 0x78B DUP3 PUSH2 0x74A JUMP JUMPDEST PUSH1 0x20 DUP3 ADD SWAP1 POP SWAP2 SWAP1 POP JUMP JUMPDEST PUSH1 0x0 PUSH1 0x20 DUP3 ADD SWAP1 POP DUP2 DUP2 SUB PUSH1 0x0 DUP4 ADD MSTORE PUSH2 0x7AF DUP2 PUSH2 0x773 JUMP JUMPDEST SWAP1 POP SWAP2 SWAP1 POP JUMP JUMPDEST PUSH1 0x0 PUSH2 0x7C1 DUP3 PUSH2 0x55A JUMP JUMPDEST SWAP2 POP PUSH2 0x7CC DUP4 PUSH2 0x55A JUMP JUMPDEST SWAP3 POP DUP3 DUP3 ADD SWAP1 POP DUP1 DUP3 GT ISZERO PUSH2 0x7E4 JUMPI PUSH2 0x7E3 PUSH2 0x64D JUMP JUMPDEST JUMPDEST SWAP3 SWAP2 POP POP JUMP JUMPDEST PUSH1 0x0 PUSH2 0x7F5 DUP3 PUSH2 0x55A JUMP JUMPDEST SWAP2 POP PUSH2 0x800 DUP4 PUSH2 0x55A JUMP JUMPDEST SWAP3 POP DUP3 DUP3 MUL PUSH2 0x80E DUP2 PUSH2 0x55A JUMP JUMPDEST SWAP2 POP DUP3 DUP3 DIV DUP5 EQ DUP4 ISZERO OR PUSH2 0x825 JUMPI PUSH2 0x824 PUSH2 0x64D JUMP JUMPDEST JUMPDEST POP SWAP3 SWAP2 POP POP JUMP JUMPDEST PUSH32 0x4E487B7100000000000000000000000000000000000000000000000000000000 PUSH1 0x0 MSTORE PUSH1 0x12 PUSH1 0x4 MSTORE PUSH1 0x24 PUSH1 0x0 REVERT JUMPDEST PUSH1 0x0 PUSH2 0x866 DUP3 PUSH2 0x55A JUMP JUMPDEST SWAP2 POP PUSH2 0x871 DUP4 PUSH2 0x55A JUMP JUMPDEST SWAP3 POP DUP3 PUSH2 0x881 JUMPI PUSH2 0x880 PUSH2 0x82C JUMP JUMPDEST JUMPDEST DUP3 DUP3 DIV SWAP1 POP SWAP3 SWAP2 POP POP JUMP JUMPDEST PUSH1 0x0 PUSH10 0xFFFFFFFFFFFFFFFFFFFF DUP3 AND SWAP1 POP SWAP2 SWAP1 POP JUMP JUMPDEST PUSH2 0x8AB DUP2 PUSH2 0x88C JUMP JUMPDEST DUP2 EQ PUSH2 0x8B6 JUMPI PUSH1 0x0 DUP1 REVERT JUMPDEST POP JUMP JUMPDEST PUSH1 0x0 DUP2 MLOAD SWAP1 POP PUSH2 0x8C8 DUP2 PUSH2 0x8A2 JUMP JUMPDEST SWAP3 SWAP2 POP POP JUMP JUMPDEST PUSH1 0x0 DUP2 SWAP1 POP SWAP2 SWAP1 POP JUMP JUMPDEST PUSH2 0x8E1 DUP2 PUSH2 0x8CE JUMP JUMPDEST DUP2 EQ PUSH2 0x8EC JUMPI PUSH1 0x0 DUP1 REVERT JUMPDEST POP JUMP JUMPDEST PUSH1 0x0 DUP2 MLOAD SWAP1 POP PUSH2 0x8FE DUP2 PUSH2 0x8D8 JUMP JUMPDEST SWAP3 SWAP2 POP POP JUMP JUMPDEST PUSH2 0x90D DUP2 PUSH2 0x55A JUMP JUMPDEST DUP2 EQ PUSH2 0x918 JUMPI PUSH1 0x0 DUP1 REVERT JUMPDEST POP JUMP JUMPDEST PUSH1 0x0 DUP2 MLOAD SWAP1 POP PUSH2 0x92A DUP2 PUSH2 0x904 JUMP JUMPDEST SWAP3 SWAP2 POP POP JUMP JUMPDEST PUSH1 0x0 DUP1 PUSH1 0x0 DUP1 PUSH1 0x0 PUSH1 0xA0 DUP7 DUP9 SUB SLT ISZERO PUSH2 0x94C JUMPI PUSH2 0x94B PUSH2 0x58E JUMP JUMPDEST JUMPDEST PUSH1 0x0 PUSH2 0x95A DUP9 DUP3 DUP10 ADD PUSH2 0x8B9 JUMP JUMPDEST SWAP6 POP POP PUSH1 0x20 PUSH2 0x96B DUP9 DUP3 DUP10 ADD PUSH2 0x8EF JUMP JUMPDEST SWAP5 POP POP PUSH1 0x40 PUSH2 0x97C DUP9 DUP3 DUP10 ADD PUSH2 0x91B JUMP JUMPDEST SWAP4 POP POP PUSH1 0x60 PUSH2 0x98D DUP9 DUP3 DUP10 ADD PUSH2 0x91B JUMP JUMPDEST SWAP3 POP POP PUSH1 0x80 PUSH2 0x99E DUP9 DUP3 DUP10 ADD PUSH2 0x8B9 JUMP JUMPDEST SWAP2 POP POP SWAP3 SWAP6 POP SWAP3 SWAP6 SWAP1 SWAP4 POP JUMP INVALID LOG2 PUSH5 0x6970667358 0x22 SLT KECCAK256 BLOCKHASH DUP14 0xDB 0xE1 PUSH22 0x24E7A96B1D2701B8C7AB086403900D6622C2DD8529DD DUP12 0xD9 SWAP4 SWAP4 SWAP9 PUSH5 0x736F6C6343 STOP ADDMOD SGT STOP CALLER "
				},
				"gasEstimates": {
					"creation": {
						"codeDepositCost": "505800",
						"executionCost": "infinite",
						"totalCost": "infinite"
					},
					"external": {
						"addressToAmountFunded(address)": "2836",
						"fund()": "infinite",
						"minimumUSD()": "307",
						"withdraw()": "infinite"
					}
				},
				"methodIdentifiers": {
					"addressToAmountFunded(address)": "3e47d6f3",
					"fund()": "b60d4288",
					"minimumUSD()": "3430a88c",
					"withdraw()": "3ccfd60b"
				}
			},
			"storageLayout": {
				"storage": [
					{
						"astId": 111,
						"contract": "Fund Me/fundMe.sol:FundMe",
						"label": "funders",
						"offset": 0,
						"slot": "0",
						"type": "t_array(t_address)dyn_storage"
					},
					{
						"astId": 115,
						"contract": "Fund Me/fundMe.sol:FundMe",
						"label": "addressToAmountFunded",
						"offset": 0,
						"slot": "1",
						"type": "t_mapping(t_address,t_uint256)"
					}
				],
				"types": {
					"t_address": {
						"encoding": "inplace",
						"label": "address",
						"numberOfBytes": "20"
					},
					"t_array(t_address)dyn_storage": {
						"base": "t_address",
						"encoding": "dynamic_array",
						"label": "address[]",
						"numberOfBytes": "32"
					},
					"t_mapping(t_address,t_uint256)": {
						"encoding": "mapping",
						"key": "t_address",
						"label": "mapping(address => uint256)",
						"numberOfBytes": "32",
						"value": "t_uint256"
					},
					"t_uint256": {
						"encoding": "inplace",
						"label": "uint256",
						"numberOfBytes": "32"
					}
				}
			},
			"userdoc": {
				"kind": "user",
				"methods": {},
				"version": 1
			}
		}
	}
}