{
	"Fund Me/fundMe.sol": {
		"FundMe": {
			"abi": [
				{
					"inputs": [
						{
							"internalType": "uint256",
							"name": "amount",
							"type": "uint256"
						}
					],
					"name": "convert",
					"outputs": [
						{
							"internalType": "uint256",
							"name": "",
							"type": "uint256"
						}
					],
					"stateMutability": "view",
					"type": "function"
				},
				{
					"inputs": [],
					"name": "fund",
					"outputs": [],
					"stateMutability": "payable",
					"type": "function"
				},
				{
					"inputs": [],
					"name": "getPrice",
					"outputs": [
						{
							"internalType": "uint256",
							"name": "",
							"type": "uint256"
						}
					],
					"stateMutability": "view",
					"type": "function"
				},
				{
					"inputs": [],
					"name": "minimumUSD",
					"outputs": [
						{
							"internalType": "uint256",
							"name": "",
							"type": "uint256"
						}
					],
					"stateMutability": "view",
					"type": "function"
				}
			],
			"devdoc": {
				"kind": "dev",
				"methods": {},
				"version": 1
			},
			"evm": {
				"assembly": "    /* \"Fund Me/fundMe.sol\":175:793  contract FundMe{... */\n  mstore(0x40, 0x80)\n    /* \"Fund Me/fundMe.sol\":231:235  5e18 */\n  0x4563918244f40000\n    /* \"Fund Me/fundMe.sol\":203:235  uint256 public minimumUSD = 5e18 */\n  0x00\n  sstore\n    /* \"Fund Me/fundMe.sol\":175:793  contract FundMe{... */\n  callvalue\n  dup1\n  iszero\n  tag_1\n  jumpi\n  0x00\n  dup1\n  revert\ntag_1:\n  pop\n  dataSize(sub_0)\n  dup1\n  dataOffset(sub_0)\n  0x00\n  codecopy\n  0x00\n  return\nstop\n\nsub_0: assembly {\n        /* \"Fund Me/fundMe.sol\":175:793  contract FundMe{... */\n      mstore(0x40, 0x80)\n      jumpi(tag_1, lt(calldatasize, 0x04))\n      shr(0xe0, calldataload(0x00))\n      dup1\n      0x3430a88c\n      eq\n      tag_2\n      jumpi\n      dup1\n      0x98d5fdca\n      eq\n      tag_3\n      jumpi\n      dup1\n      0xa3908e1b\n      eq\n      tag_4\n      jumpi\n      dup1\n      0xb60d4288\n      eq\n      tag_5\n      jumpi\n    tag_1:\n      0x00\n      dup1\n      revert\n        /* \"Fund Me/fundMe.sol\":203:235  uint256 public minimumUSD = 5e18 */\n    tag_2:\n      callvalue\n      dup1\n      iszero\n      tag_6\n      jumpi\n      0x00\n      dup1\n      revert\n    tag_6:\n      pop\n      tag_7\n      tag_8\n      jump\t// in\n    tag_7:\n      mload(0x40)\n      tag_9\n      swap2\n      swap1\n      tag_10\n      jump\t// in\n    tag_9:\n      mload(0x40)\n      dup1\n      swap2\n      sub\n      swap1\n      return\n        /* \"Fund Me/fundMe.sol\":371:636  function getPrice() public view returns(uint256){... */\n    tag_3:\n      callvalue\n      dup1\n      iszero\n      tag_11\n      jumpi\n      0x00\n      dup1\n      revert\n    tag_11:\n      pop\n      tag_12\n      tag_13\n      jump\t// in\n    tag_12:\n      mload(0x40)\n      tag_14\n      swap2\n      swap1\n      tag_10\n      jump\t// in\n    tag_14:\n      mload(0x40)\n      dup1\n      swap2\n      sub\n      swap1\n      return\n        /* \"Fund Me/fundMe.sol\":644:788  function convert(uint256 amount) public view returns (uint256){... */\n    tag_4:\n      callvalue\n      dup1\n      iszero\n      tag_15\n      jumpi\n      0x00\n      dup1\n      revert\n    tag_15:\n      pop\n      tag_16\n      0x04\n      dup1\n      calldatasize\n      sub\n      dup2\n      add\n      swap1\n      tag_17\n      swap2\n      swap1\n      tag_18\n      jump\t// in\n    tag_17:\n      tag_19\n      jump\t// in\n    tag_16:\n      mload(0x40)\n      tag_20\n      swap2\n      swap1\n      tag_10\n      jump\t// in\n    tag_20:\n      mload(0x40)\n      dup1\n      swap2\n      sub\n      swap1\n      return\n        /* \"Fund Me/fundMe.sol\":244:363  function fund() public payable {... */\n    tag_5:\n      tag_21\n      tag_22\n      jump\t// in\n    tag_21:\n      stop\n        /* \"Fund Me/fundMe.sol\":203:235  uint256 public minimumUSD = 5e18 */\n    tag_8:\n      sload(0x00)\n      dup2\n      jump\t// out\n        /* \"Fund Me/fundMe.sol\":371:636  function getPrice() public view returns(uint256){... */\n    tag_13:\n        /* \"Fund Me/fundMe.sol\":411:418  uint256 */\n      0x00\n        /* \"Fund Me/fundMe.sol\":430:461  AggregatorV3Interface priceFeed */\n      dup1\n        /* \"Fund Me/fundMe.sol\":486:528  0x694AA1769357215DE4FAC081bf1f309aDC325306 */\n      0x694aa1769357215de4fac081bf1f309adc325306\n        /* \"Fund Me/fundMe.sol\":430:529  AggregatorV3Interface priceFeed = AggregatorV3Interface(0x694AA1769357215DE4FAC081bf1f309aDC325306) */\n      swap1\n      pop\n        /* \"Fund Me/fundMe.sol\":542:554  int256 price */\n      0x00\n        /* \"Fund Me/fundMe.sol\":564:573  priceFeed */\n      dup2\n        /* \"Fund Me/fundMe.sol\":564:589  priceFeed.latestRoundData */\n      0xffffffffffffffffffffffffffffffffffffffff\n      and\n      0xfeaf968c\n        /* \"Fund Me/fundMe.sol\":564:591  priceFeed.latestRoundData() */\n      mload(0x40)\n      dup2\n      0xffffffff\n      and\n      0xe0\n      shl\n      dup2\n      mstore\n      0x04\n      add\n      0xa0\n      mload(0x40)\n      dup1\n      dup4\n      sub\n      dup2\n      dup7\n      gas\n      staticcall\n      iszero\n      dup1\n      iszero\n      tag_25\n      jumpi\n      returndatasize\n      0x00\n      dup1\n      returndatacopy\n      revert(0x00, returndatasize)\n    tag_25:\n      pop\n      pop\n      pop\n      pop\n      mload(0x40)\n      returndatasize\n      not(0x1f)\n      0x1f\n      dup3\n      add\n      and\n      dup3\n      add\n      dup1\n      0x40\n      mstore\n      pop\n      dup2\n      add\n      swap1\n      tag_26\n      swap2\n      swap1\n      tag_27\n      jump\t// in\n    tag_26:\n        /* \"Fund Me/fundMe.sol\":540:591  (,int256 price, , , ) = priceFeed.latestRoundData() */\n      pop\n      pop\n      pop\n      swap2\n      pop\n      pop\n        /* \"Fund Me/fundMe.sol\":624:628  1e10 */\n      0x02540be400\n        /* \"Fund Me/fundMe.sol\":617:622  price */\n      dup2\n        /* \"Fund Me/fundMe.sol\":609:628  uint256(price)*1e10 */\n      tag_28\n      swap2\n      swap1\n      tag_29\n      jump\t// in\n    tag_28:\n        /* \"Fund Me/fundMe.sol\":602:628  return uint256(price)*1e10 */\n      swap3\n      pop\n      pop\n      pop\n        /* \"Fund Me/fundMe.sol\":371:636  function getPrice() public view returns(uint256){... */\n      swap1\n      jump\t// out\n        /* \"Fund Me/fundMe.sol\":644:788  function convert(uint256 amount) public view returns (uint256){... */\n    tag_19:\n        /* \"Fund Me/fundMe.sol\":698:705  uint256 */\n      0x00\n        /* \"Fund Me/fundMe.sol\":717:730  uint256 price */\n      dup1\n        /* \"Fund Me/fundMe.sol\":733:743  getPrice() */\n      tag_31\n        /* \"Fund Me/fundMe.sol\":733:741  getPrice */\n      tag_13\n        /* \"Fund Me/fundMe.sol\":733:743  getPrice() */\n      jump\t// in\n    tag_31:\n        /* \"Fund Me/fundMe.sol\":717:743  uint256 price = getPrice() */\n      swap1\n      pop\n        /* \"Fund Me/fundMe.sol\":776:780  1e18 */\n      0x0de0b6b3a7640000\n        /* \"Fund Me/fundMe.sol\":768:774  amount */\n      dup4\n        /* \"Fund Me/fundMe.sol\":762:767  price */\n      dup3\n        /* \"Fund Me/fundMe.sol\":762:774  price*amount */\n      tag_32\n      swap2\n      swap1\n      tag_29\n      jump\t// in\n    tag_32:\n        /* \"Fund Me/fundMe.sol\":761:780  (price*amount)/1e18 */\n      tag_33\n      swap2\n      swap1\n      tag_34\n      jump\t// in\n    tag_33:\n        /* \"Fund Me/fundMe.sol\":754:780  return (price*amount)/1e18 */\n      swap2\n      pop\n      pop\n        /* \"Fund Me/fundMe.sol\":644:788  function convert(uint256 amount) public view returns (uint256){... */\n      swap2\n      swap1\n      pop\n      jump\t// out\n        /* \"Fund Me/fundMe.sol\":244:363  function fund() public payable {... */\n    tag_22:\n        /* \"Fund Me/fundMe.sol\":318:328  minimumUSD */\n      sload(0x00)\n        /* \"Fund Me/fundMe.sol\":296:314  convert(msg.value) */\n      tag_36\n        /* \"Fund Me/fundMe.sol\":304:313  msg.value */\n      callvalue\n        /* \"Fund Me/fundMe.sol\":296:303  convert */\n      tag_19\n        /* \"Fund Me/fundMe.sol\":296:314  convert(msg.value) */\n      jump\t// in\n    tag_36:\n        /* \"Fund Me/fundMe.sol\":296:328  convert(msg.value) >= minimumUSD */\n      lt\n      iszero\n        /* \"Fund Me/fundMe.sol\":288:355  require(convert(msg.value) >= minimumUSD, \"didn't send enough ETH\") */\n      tag_37\n      jumpi\n      mload(0x40)\n      0x08c379a000000000000000000000000000000000000000000000000000000000\n      dup2\n      mstore\n      0x04\n      add\n      tag_38\n      swap1\n      tag_39\n      jump\t// in\n    tag_38:\n      mload(0x40)\n      dup1\n      swap2\n      sub\n      swap1\n      revert\n    tag_37:\n        /* \"Fund Me/fundMe.sol\":244:363  function fund() public payable {... */\n      jump\t// out\n        /* \"#utility.yul\":7:84   */\n    tag_40:\n        /* \"#utility.yul\":44:51   */\n      0x00\n        /* \"#utility.yul\":73:78   */\n      dup2\n        /* \"#utility.yul\":62:78   */\n      swap1\n      pop\n        /* \"#utility.yul\":7:84   */\n      swap2\n      swap1\n      pop\n      jump\t// out\n        /* \"#utility.yul\":90:208   */\n    tag_41:\n        /* \"#utility.yul\":177:201   */\n      tag_62\n        /* \"#utility.yul\":195:200   */\n      dup2\n        /* \"#utility.yul\":177:201   */\n      tag_40\n      jump\t// in\n    tag_62:\n        /* \"#utility.yul\":172:175   */\n      dup3\n        /* \"#utility.yul\":165:202   */\n      mstore\n        /* \"#utility.yul\":90:208   */\n      pop\n      pop\n      jump\t// out\n        /* \"#utility.yul\":214:436   */\n    tag_10:\n        /* \"#utility.yul\":307:311   */\n      0x00\n        /* \"#utility.yul\":345:347   */\n      0x20\n        /* \"#utility.yul\":334:343   */\n      dup3\n        /* \"#utility.yul\":330:348   */\n      add\n        /* \"#utility.yul\":322:348   */\n      swap1\n      pop\n        /* \"#utility.yul\":358:429   */\n      tag_64\n        /* \"#utility.yul\":426:427   */\n      0x00\n        /* \"#utility.yul\":415:424   */\n      dup4\n        /* \"#utility.yul\":411:428   */\n      add\n        /* \"#utility.yul\":402:408   */\n      dup5\n        /* \"#utility.yul\":358:429   */\n      tag_41\n      jump\t// in\n    tag_64:\n        /* \"#utility.yul\":214:436   */\n      swap3\n      swap2\n      pop\n      pop\n      jump\t// out\n        /* \"#utility.yul\":523:640   */\n    tag_43:\n        /* \"#utility.yul\":632:633   */\n      0x00\n        /* \"#utility.yul\":629:630   */\n      dup1\n        /* \"#utility.yul\":622:634   */\n      revert\n        /* \"#utility.yul\":769:891   */\n    tag_45:\n        /* \"#utility.yul\":842:866   */\n      tag_69\n        /* \"#utility.yul\":860:865   */\n      dup2\n        /* \"#utility.yul\":842:866   */\n      tag_40\n      jump\t// in\n    tag_69:\n        /* \"#utility.yul\":835:840   */\n      dup2\n        /* \"#utility.yul\":832:867   */\n      eq\n        /* \"#utility.yul\":822:885   */\n      tag_70\n      jumpi\n        /* \"#utility.yul\":881:882   */\n      0x00\n        /* \"#utility.yul\":878:879   */\n      dup1\n        /* \"#utility.yul\":871:883   */\n      revert\n        /* \"#utility.yul\":822:885   */\n    tag_70:\n        /* \"#utility.yul\":769:891   */\n      pop\n      jump\t// out\n        /* \"#utility.yul\":897:1036   */\n    tag_46:\n        /* \"#utility.yul\":943:948   */\n      0x00\n        /* \"#utility.yul\":981:987   */\n      dup2\n        /* \"#utility.yul\":968:988   */\n      calldataload\n        /* \"#utility.yul\":959:988   */\n      swap1\n      pop\n        /* \"#utility.yul\":997:1030   */\n      tag_72\n        /* \"#utility.yul\":1024:1029   */\n      dup2\n        /* \"#utility.yul\":997:1030   */\n      tag_45\n      jump\t// in\n    tag_72:\n        /* \"#utility.yul\":897:1036   */\n      swap3\n      swap2\n      pop\n      pop\n      jump\t// out\n        /* \"#utility.yul\":1042:1371   */\n    tag_18:\n        /* \"#utility.yul\":1101:1107   */\n      0x00\n        /* \"#utility.yul\":1150:1152   */\n      0x20\n        /* \"#utility.yul\":1138:1147   */\n      dup3\n        /* \"#utility.yul\":1129:1136   */\n      dup5\n        /* \"#utility.yul\":1125:1148   */\n      sub\n        /* \"#utility.yul\":1121:1153   */\n      slt\n        /* \"#utility.yul\":1118:1237   */\n      iszero\n      tag_74\n      jumpi\n        /* \"#utility.yul\":1156:1235   */\n      tag_75\n      tag_43\n      jump\t// in\n    tag_75:\n        /* \"#utility.yul\":1118:1237   */\n    tag_74:\n        /* \"#utility.yul\":1276:1277   */\n      0x00\n        /* \"#utility.yul\":1301:1354   */\n      tag_76\n        /* \"#utility.yul\":1346:1353   */\n      dup5\n        /* \"#utility.yul\":1337:1343   */\n      dup3\n        /* \"#utility.yul\":1326:1335   */\n      dup6\n        /* \"#utility.yul\":1322:1344   */\n      add\n        /* \"#utility.yul\":1301:1354   */\n      tag_46\n      jump\t// in\n    tag_76:\n        /* \"#utility.yul\":1291:1354   */\n      swap2\n      pop\n        /* \"#utility.yul\":1247:1364   */\n      pop\n        /* \"#utility.yul\":1042:1371   */\n      swap3\n      swap2\n      pop\n      pop\n      jump\t// out\n        /* \"#utility.yul\":1377:1482   */\n    tag_47:\n        /* \"#utility.yul\":1413:1420   */\n      0x00\n        /* \"#utility.yul\":1453:1475   */\n      0xffffffffffffffffffff\n        /* \"#utility.yul\":1446:1451   */\n      dup3\n        /* \"#utility.yul\":1442:1476   */\n      and\n        /* \"#utility.yul\":1431:1476   */\n      swap1\n      pop\n        /* \"#utility.yul\":1377:1482   */\n      swap2\n      swap1\n      pop\n      jump\t// out\n        /* \"#utility.yul\":1488:1608   */\n    tag_48:\n        /* \"#utility.yul\":1560:1583   */\n      tag_79\n        /* \"#utility.yul\":1577:1582   */\n      dup2\n        /* \"#utility.yul\":1560:1583   */\n      tag_47\n      jump\t// in\n    tag_79:\n        /* \"#utility.yul\":1553:1558   */\n      dup2\n        /* \"#utility.yul\":1550:1584   */\n      eq\n        /* \"#utility.yul\":1540:1602   */\n      tag_80\n      jumpi\n        /* \"#utility.yul\":1598:1599   */\n      0x00\n        /* \"#utility.yul\":1595:1596   */\n      dup1\n        /* \"#utility.yul\":1588:1600   */\n      revert\n        /* \"#utility.yul\":1540:1602   */\n    tag_80:\n        /* \"#utility.yul\":1488:1608   */\n      pop\n      jump\t// out\n        /* \"#utility.yul\":1614:1755   */\n    tag_49:\n        /* \"#utility.yul\":1670:1675   */\n      0x00\n        /* \"#utility.yul\":1701:1707   */\n      dup2\n        /* \"#utility.yul\":1695:1708   */\n      mload\n        /* \"#utility.yul\":1686:1708   */\n      swap1\n      pop\n        /* \"#utility.yul\":1717:1749   */\n      tag_82\n        /* \"#utility.yul\":1743:1748   */\n      dup2\n        /* \"#utility.yul\":1717:1749   */\n      tag_48\n      jump\t// in\n    tag_82:\n        /* \"#utility.yul\":1614:1755   */\n      swap3\n      swap2\n      pop\n      pop\n      jump\t// out\n        /* \"#utility.yul\":1761:1837   */\n    tag_50:\n        /* \"#utility.yul\":1797:1804   */\n      0x00\n        /* \"#utility.yul\":1826:1831   */\n      dup2\n        /* \"#utility.yul\":1815:1831   */\n      swap1\n      pop\n        /* \"#utility.yul\":1761:1837   */\n      swap2\n      swap1\n      pop\n      jump\t// out\n        /* \"#utility.yul\":1843:1963   */\n    tag_51:\n        /* \"#utility.yul\":1915:1938   */\n      tag_85\n        /* \"#utility.yul\":1932:1937   */\n      dup2\n        /* \"#utility.yul\":1915:1938   */\n      tag_50\n      jump\t// in\n    tag_85:\n        /* \"#utility.yul\":1908:1913   */\n      dup2\n        /* \"#utility.yul\":1905:1939   */\n      eq\n        /* \"#utility.yul\":1895:1957   */\n      tag_86\n      jumpi\n        /* \"#utility.yul\":1953:1954   */\n      0x00\n        /* \"#utility.yul\":1950:1951   */\n      dup1\n        /* \"#utility.yul\":1943:1955   */\n      revert\n        /* \"#utility.yul\":1895:1957   */\n    tag_86:\n        /* \"#utility.yul\":1843:1963   */\n      pop\n      jump\t// out\n        /* \"#utility.yul\":1969:2110   */\n    tag_52:\n        /* \"#utility.yul\":2025:2030   */\n      0x00\n        /* \"#utility.yul\":2056:2062   */\n      dup2\n        /* \"#utility.yul\":2050:2063   */\n      mload\n        /* \"#utility.yul\":2041:2063   */\n      swap1\n      pop\n        /* \"#utility.yul\":2072:2104   */\n      tag_88\n        /* \"#utility.yul\":2098:2103   */\n      dup2\n        /* \"#utility.yul\":2072:2104   */\n      tag_51\n      jump\t// in\n    tag_88:\n        /* \"#utility.yul\":1969:2110   */\n      swap3\n      swap2\n      pop\n      pop\n      jump\t// out\n        /* \"#utility.yul\":2116:2259   */\n    tag_53:\n        /* \"#utility.yul\":2173:2178   */\n      0x00\n        /* \"#utility.yul\":2204:2210   */\n      dup2\n        /* \"#utility.yul\":2198:2211   */\n      mload\n        /* \"#utility.yul\":2189:2211   */\n      swap1\n      pop\n        /* \"#utility.yul\":2220:2253   */\n      tag_90\n        /* \"#utility.yul\":2247:2252   */\n      dup2\n        /* \"#utility.yul\":2220:2253   */\n      tag_45\n      jump\t// in\n    tag_90:\n        /* \"#utility.yul\":2116:2259   */\n      swap3\n      swap2\n      pop\n      pop\n      jump\t// out\n        /* \"#utility.yul\":2265:3236   */\n    tag_27:\n        /* \"#utility.yul\":2368:2374   */\n      0x00\n        /* \"#utility.yul\":2376:2382   */\n      dup1\n        /* \"#utility.yul\":2384:2390   */\n      0x00\n        /* \"#utility.yul\":2392:2398   */\n      dup1\n        /* \"#utility.yul\":2400:2406   */\n      0x00\n        /* \"#utility.yul\":2449:2452   */\n      0xa0\n        /* \"#utility.yul\":2437:2446   */\n      dup7\n        /* \"#utility.yul\":2428:2435   */\n      dup9\n        /* \"#utility.yul\":2424:2447   */\n      sub\n        /* \"#utility.yul\":2420:2453   */\n      slt\n        /* \"#utility.yul\":2417:2537   */\n      iszero\n      tag_92\n      jumpi\n        /* \"#utility.yul\":2456:2535   */\n      tag_93\n      tag_43\n      jump\t// in\n    tag_93:\n        /* \"#utility.yul\":2417:2537   */\n    tag_92:\n        /* \"#utility.yul\":2576:2577   */\n      0x00\n        /* \"#utility.yul\":2601:2664   */\n      tag_94\n        /* \"#utility.yul\":2656:2663   */\n      dup9\n        /* \"#utility.yul\":2647:2653   */\n      dup3\n        /* \"#utility.yul\":2636:2645   */\n      dup10\n        /* \"#utility.yul\":2632:2654   */\n      add\n        /* \"#utility.yul\":2601:2664   */\n      tag_49\n      jump\t// in\n    tag_94:\n        /* \"#utility.yul\":2591:2664   */\n      swap6\n      pop\n        /* \"#utility.yul\":2547:2674   */\n      pop\n        /* \"#utility.yul\":2713:2715   */\n      0x20\n        /* \"#utility.yul\":2739:2802   */\n      tag_95\n        /* \"#utility.yul\":2794:2801   */\n      dup9\n        /* \"#utility.yul\":2785:2791   */\n      dup3\n        /* \"#utility.yul\":2774:2783   */\n      dup10\n        /* \"#utility.yul\":2770:2792   */\n      add\n        /* \"#utility.yul\":2739:2802   */\n      tag_52\n      jump\t// in\n    tag_95:\n        /* \"#utility.yul\":2729:2802   */\n      swap5\n      pop\n        /* \"#utility.yul\":2684:2812   */\n      pop\n        /* \"#utility.yul\":2851:2853   */\n      0x40\n        /* \"#utility.yul\":2877:2941   */\n      tag_96\n        /* \"#utility.yul\":2933:2940   */\n      dup9\n        /* \"#utility.yul\":2924:2930   */\n      dup3\n        /* \"#utility.yul\":2913:2922   */\n      dup10\n        /* \"#utility.yul\":2909:2931   */\n      add\n        /* \"#utility.yul\":2877:2941   */\n      tag_53\n      jump\t// in\n    tag_96:\n        /* \"#utility.yul\":2867:2941   */\n      swap4\n      pop\n        /* \"#utility.yul\":2822:2951   */\n      pop\n        /* \"#utility.yul\":2990:2992   */\n      0x60\n        /* \"#utility.yul\":3016:3080   */\n      tag_97\n        /* \"#utility.yul\":3072:3079   */\n      dup9\n        /* \"#utility.yul\":3063:3069   */\n      dup3\n        /* \"#utility.yul\":3052:3061   */\n      dup10\n        /* \"#utility.yul\":3048:3070   */\n      add\n        /* \"#utility.yul\":3016:3080   */\n      tag_53\n      jump\t// in\n    tag_97:\n        /* \"#utility.yul\":3006:3080   */\n      swap3\n      pop\n        /* \"#utility.yul\":2961:3090   */\n      pop\n        /* \"#utility.yul\":3129:3132   */\n      0x80\n        /* \"#utility.yul\":3156:3219   */\n      tag_98\n        /* \"#utility.yul\":3211:3218   */\n      dup9\n        /* \"#utility.yul\":3202:3208   */\n      dup3\n        /* \"#utility.yul\":3191:3200   */\n      dup10\n        /* \"#utility.yul\":3187:3209   */\n      add\n        /* \"#utility.yul\":3156:3219   */\n      tag_49\n      jump\t// in\n    tag_98:\n        /* \"#utility.yul\":3146:3219   */\n      swap2\n      pop\n        /* \"#utility.yul\":3100:3229   */\n      pop\n        /* \"#utility.yul\":2265:3236   */\n      swap3\n      swap6\n      pop\n      swap3\n      swap6\n      swap1\n      swap4\n      pop\n      jump\t// out\n        /* \"#utility.yul\":3242:3422   */\n    tag_54:\n        /* \"#utility.yul\":3290:3367   */\n      0x4e487b7100000000000000000000000000000000000000000000000000000000\n        /* \"#utility.yul\":3287:3288   */\n      0x00\n        /* \"#utility.yul\":3280:3368   */\n      mstore\n        /* \"#utility.yul\":3387:3391   */\n      0x11\n        /* \"#utility.yul\":3384:3385   */\n      0x04\n        /* \"#utility.yul\":3377:3392   */\n      mstore\n        /* \"#utility.yul\":3411:3415   */\n      0x24\n        /* \"#utility.yul\":3408:3409   */\n      0x00\n        /* \"#utility.yul\":3401:3416   */\n      revert\n        /* \"#utility.yul\":3428:3838   */\n    tag_29:\n        /* \"#utility.yul\":3468:3475   */\n      0x00\n        /* \"#utility.yul\":3491:3511   */\n      tag_101\n        /* \"#utility.yul\":3509:3510   */\n      dup3\n        /* \"#utility.yul\":3491:3511   */\n      tag_40\n      jump\t// in\n    tag_101:\n        /* \"#utility.yul\":3486:3511   */\n      swap2\n      pop\n        /* \"#utility.yul\":3525:3545   */\n      tag_102\n        /* \"#utility.yul\":3543:3544   */\n      dup4\n        /* \"#utility.yul\":3525:3545   */\n      tag_40\n      jump\t// in\n    tag_102:\n        /* \"#utility.yul\":3520:3545   */\n      swap3\n      pop\n        /* \"#utility.yul\":3580:3581   */\n      dup3\n        /* \"#utility.yul\":3577:3578   */\n      dup3\n        /* \"#utility.yul\":3573:3582   */\n      mul\n        /* \"#utility.yul\":3602:3632   */\n      tag_103\n        /* \"#utility.yul\":3620:3631   */\n      dup2\n        /* \"#utility.yul\":3602:3632   */\n      tag_40\n      jump\t// in\n    tag_103:\n        /* \"#utility.yul\":3591:3632   */\n      swap2\n      pop\n        /* \"#utility.yul\":3781:3782   */\n      dup3\n        /* \"#utility.yul\":3772:3779   */\n      dup3\n        /* \"#utility.yul\":3768:3783   */\n      div\n        /* \"#utility.yul\":3765:3766   */\n      dup5\n        /* \"#utility.yul\":3762:3784   */\n      eq\n        /* \"#utility.yul\":3742:3743   */\n      dup4\n        /* \"#utility.yul\":3735:3744   */\n      iszero\n        /* \"#utility.yul\":3715:3798   */\n      or\n        /* \"#utility.yul\":3692:3831   */\n      tag_104\n      jumpi\n        /* \"#utility.yul\":3811:3829   */\n      tag_105\n      tag_54\n      jump\t// in\n    tag_105:\n        /* \"#utility.yul\":3692:3831   */\n    tag_104:\n        /* \"#utility.yul\":3476:3838   */\n      pop\n        /* \"#utility.yul\":3428:3838   */\n      swap3\n      swap2\n      pop\n      pop\n      jump\t// out\n        /* \"#utility.yul\":3844:4024   */\n    tag_55:\n        /* \"#utility.yul\":3892:3969   */\n      0x4e487b7100000000000000000000000000000000000000000000000000000000\n        /* \"#utility.yul\":3889:3890   */\n      0x00\n        /* \"#utility.yul\":3882:3970   */\n      mstore\n        /* \"#utility.yul\":3989:3993   */\n      0x12\n        /* \"#utility.yul\":3986:3987   */\n      0x04\n        /* \"#utility.yul\":3979:3994   */\n      mstore\n        /* \"#utility.yul\":4013:4017   */\n      0x24\n        /* \"#utility.yul\":4010:4011   */\n      0x00\n        /* \"#utility.yul\":4003:4018   */\n      revert\n        /* \"#utility.yul\":4030:4215   */\n    tag_34:\n        /* \"#utility.yul\":4070:4071   */\n      0x00\n        /* \"#utility.yul\":4087:4107   */\n      tag_108\n        /* \"#utility.yul\":4105:4106   */\n      dup3\n        /* \"#utility.yul\":4087:4107   */\n      tag_40\n      jump\t// in\n    tag_108:\n        /* \"#utility.yul\":4082:4107   */\n      swap2\n      pop\n        /* \"#utility.yul\":4121:4141   */\n      tag_109\n        /* \"#utility.yul\":4139:4140   */\n      dup4\n        /* \"#utility.yul\":4121:4141   */\n      tag_40\n      jump\t// in\n    tag_109:\n        /* \"#utility.yul\":4116:4141   */\n      swap3\n      pop\n        /* \"#utility.yul\":4160:4161   */\n      dup3\n        /* \"#utility.yul\":4150:4185   */\n      tag_110\n      jumpi\n        /* \"#utility.yul\":4165:4183   */\n      tag_111\n      tag_55\n      jump\t// in\n    tag_111:\n        /* \"#utility.yul\":4150:4185   */\n    tag_110:\n        /* \"#utility.yul\":4207:4208   */\n      dup3\n        /* \"#utility.yul\":4204:4205   */\n      dup3\n        /* \"#utility.yul\":4200:4209   */\n      div\n        /* \"#utility.yul\":4195:4209   */\n      swap1\n      pop\n        /* \"#utility.yul\":4030:4215   */\n      swap3\n      swap2\n      pop\n      pop\n      jump\t// out\n        /* \"#utility.yul\":4221:4390   */\n    tag_56:\n        /* \"#utility.yul\":4305:4316   */\n      0x00\n        /* \"#utility.yul\":4339:4345   */\n      dup3\n        /* \"#utility.yul\":4334:4337   */\n      dup3\n        /* \"#utility.yul\":4327:4346   */\n      mstore\n        /* \"#utility.yul\":4379:4383   */\n      0x20\n        /* \"#utility.yul\":4374:4377   */\n      dup3\n        /* \"#utility.yul\":4370:4384   */\n      add\n        /* \"#utility.yul\":4355:4384   */\n      swap1\n      pop\n        /* \"#utility.yul\":4221:4390   */\n      swap3\n      swap2\n      pop\n      pop\n      jump\t// out\n        /* \"#utility.yul\":4396:4568   */\n    tag_57:\n        /* \"#utility.yul\":4536:4560   */\n      0x6469646e27742073656e6420656e6f7567682045544800000000000000000000\n        /* \"#utility.yul\":4532:4533   */\n      0x00\n        /* \"#utility.yul\":4524:4530   */\n      dup3\n        /* \"#utility.yul\":4520:4534   */\n      add\n        /* \"#utility.yul\":4513:4561   */\n      mstore\n        /* \"#utility.yul\":4396:4568   */\n      pop\n      jump\t// out\n        /* \"#utility.yul\":4574:4940   */\n    tag_58:\n        /* \"#utility.yul\":4716:4719   */\n      0x00\n        /* \"#utility.yul\":4737:4804   */\n      tag_115\n        /* \"#utility.yul\":4801:4803   */\n      0x16\n        /* \"#utility.yul\":4796:4799   */\n      dup4\n        /* \"#utility.yul\":4737:4804   */\n      tag_56\n      jump\t// in\n    tag_115:\n        /* \"#utility.yul\":4730:4804   */\n      swap2\n      pop\n        /* \"#utility.yul\":4813:4906   */\n      tag_116\n        /* \"#utility.yul\":4902:4905   */\n      dup3\n        /* \"#utility.yul\":4813:4906   */\n      tag_57\n      jump\t// in\n    tag_116:\n        /* \"#utility.yul\":4931:4933   */\n      0x20\n        /* \"#utility.yul\":4926:4929   */\n      dup3\n        /* \"#utility.yul\":4922:4934   */\n      add\n        /* \"#utility.yul\":4915:4934   */\n      swap1\n      pop\n        /* \"#utility.yul\":4574:4940   */\n      swap2\n      swap1\n      pop\n      jump\t// out\n        /* \"#utility.yul\":4946:5365   */\n    tag_39:\n        /* \"#utility.yul\":5112:5116   */\n      0x00\n        /* \"#utility.yul\":5150:5152   */\n      0x20\n        /* \"#utility.yul\":5139:5148   */\n      dup3\n        /* \"#utility.yul\":5135:5153   */\n      add\n        /* \"#utility.yul\":5127:5153   */\n      swap1\n      pop\n        /* \"#utility.yul\":5199:5208   */\n      dup2\n        /* \"#utility.yul\":5193:5197   */\n      dup2\n        /* \"#utility.yul\":5189:5209   */\n      sub\n        /* \"#utility.yul\":5185:5186   */\n      0x00\n        /* \"#utility.yul\":5174:5183   */\n      dup4\n        /* \"#utility.yul\":5170:5187   */\n      add\n        /* \"#utility.yul\":5163:5210   */\n      mstore\n        /* \"#utility.yul\":5227:5358   */\n      tag_118\n        /* \"#utility.yul\":5353:5357   */\n      dup2\n        /* \"#utility.yul\":5227:5358   */\n      tag_58\n      jump\t// in\n    tag_118:\n        /* \"#utility.yul\":5219:5358   */\n      swap1\n      pop\n        /* \"#utility.yul\":4946:5365   */\n      swap2\n      swap1\n      pop\n      jump\t// out\n\n    auxdata: 0xa2646970667358221220d801d656ec43bd0f66425030989059b1f529e7868ae1a44fd0568224c86ebf1f64736f6c63430008130033\n}\n",
				"bytecode": {
					"linkReferences": {},
					"object": "6080604052674563918244f4000060005534801561001c57600080fd5b506105318061002c6000396000f3fe60806040526004361061003f5760003560e01c80633430a88c1461004457806398d5fdca1461006f578063a3908e1b1461009a578063b60d4288146100d7575b600080fd5b34801561005057600080fd5b506100596100e1565b604051610066919061022c565b60405180910390f35b34801561007b57600080fd5b506100846100e7565b604051610091919061022c565b60405180910390f35b3480156100a657600080fd5b506100c160048036038101906100bc9190610278565b610190565b6040516100ce919061022c565b60405180910390f35b6100df6101c4565b005b60005481565b60008073694aa1769357215de4fac081bf1f309adc325306905060008173ffffffffffffffffffffffffffffffffffffffff1663feaf968c6040518163ffffffff1660e01b815260040160a060405180830381865afa15801561014e573d6000803e3d6000fd5b505050506040513d601f19601f820116820180604052508101906101729190610332565b5050509150506402540be4008161018991906103dc565b9250505090565b60008061019b6100e7565b9050670de0b6b3a764000083826101b291906103dc565b6101bc919061044d565b915050919050565b6000546101d034610190565b1015610211576040517f08c379a0000000000000000000000000000000000000000000000000000000008152600401610208906104db565b60405180910390fd5b565b6000819050919050565b61022681610213565b82525050565b6000602082019050610241600083018461021d565b92915050565b600080fd5b61025581610213565b811461026057600080fd5b50565b6000813590506102728161024c565b92915050565b60006020828403121561028e5761028d610247565b5b600061029c84828501610263565b91505092915050565b600069ffffffffffffffffffff82169050919050565b6102c4816102a5565b81146102cf57600080fd5b50565b6000815190506102e1816102bb565b92915050565b6000819050919050565b6102fa816102e7565b811461030557600080fd5b50565b600081519050610317816102f1565b92915050565b60008151905061032c8161024c565b92915050565b600080600080600060a0868803121561034e5761034d610247565b5b600061035c888289016102d2565b955050602061036d88828901610308565b945050604061037e8882890161031d565b935050606061038f8882890161031d565b92505060806103a0888289016102d2565b9150509295509295909350565b7f4e487b7100000000000000000000000000000000000000000000000000000000600052601160045260246000fd5b60006103e782610213565b91506103f283610213565b925082820261040081610213565b91508282048414831517610417576104166103ad565b5b5092915050565b7f4e487b7100000000000000000000000000000000000000000000000000000000600052601260045260246000fd5b600061045882610213565b915061046383610213565b9250826104735761047261041e565b5b828204905092915050565b600082825260208201905092915050565b7f6469646e27742073656e6420656e6f7567682045544800000000000000000000600082015250565b60006104c560168361047e565b91506104d08261048f565b602082019050919050565b600060208201905081810360008301526104f4816104b8565b905091905056fea2646970667358221220d801d656ec43bd0f66425030989059b1f529e7868ae1a44fd0568224c86ebf1f64736f6c63430008130033",
					"opcodes": "PUSH1 0x80 PUSH1 0x40 MSTORE PUSH8 0x4563918244F40000 PUSH1 0x0 SSTORE CALLVALUE DUP1 ISZERO PUSH2 0x1C JUMPI PUSH1 0x0 DUP1 REVERT JUMPDEST POP PUSH2 0x531 DUP1 PUSH2 0x2C PUSH1 0x0 CODECOPY PUSH1 0x0 RETURN INVALID PUSH1 0x80 PUSH1 0x40 MSTORE PUSH1 0x4 CALLDATASIZE LT PUSH2 0x3F JUMPI PUSH1 0x0 CALLDATALOAD PUSH1 0xE0 SHR DUP1 PUSH4 0x3430A88C EQ PUSH2 0x44 JUMPI DUP1 PUSH4 0x98D5FDCA EQ PUSH2 0x6F JUMPI DUP1 PUSH4 0xA3908E1B EQ PUSH2 0x9A JUMPI DUP1 PUSH4 0xB60D4288 EQ PUSH2 0xD7 JUMPI JUMPDEST PUSH1 0x0 DUP1 REVERT JUMPDEST CALLVALUE DUP1 ISZERO PUSH2 0x50 JUMPI PUSH1 0x0 DUP1 REVERT JUMPDEST POP PUSH2 0x59 PUSH2 0xE1 JUMP JUMPDEST PUSH1 0x40 MLOAD PUSH2 0x66 SWAP2 SWAP1 PUSH2 0x22C JUMP JUMPDEST PUSH1 0x40 MLOAD DUP1 SWAP2 SUB SWAP1 RETURN JUMPDEST CALLVALUE DUP1 ISZERO PUSH2 0x7B JUMPI PUSH1 0x0 DUP1 REVERT JUMPDEST POP PUSH2 0x84 PUSH2 0xE7 JUMP JUMPDEST PUSH1 0x40 MLOAD PUSH2 0x91 SWAP2 SWAP1 PUSH2 0x22C JUMP JUMPDEST PUSH1 0x40 MLOAD DUP1 SWAP2 SUB SWAP1 RETURN JUMPDEST CALLVALUE DUP1 ISZERO PUSH2 0xA6 JUMPI PUSH1 0x0 DUP1 REVERT JUMPDEST POP PUSH2 0xC1 PUSH1 0x4 DUP1 CALLDATASIZE SUB DUP2 ADD SWAP1 PUSH2 0xBC SWAP2 SWAP1 PUSH2 0x278 JUMP JUMPDEST PUSH2 0x190 JUMP JUMPDEST PUSH1 0x40 MLOAD PUSH2 0xCE SWAP2 SWAP1 PUSH2 0x22C JUMP JUMPDEST PUSH1 0x40 MLOAD DUP1 SWAP2 SUB SWAP1 RETURN JUMPDEST PUSH2 0xDF PUSH2 0x1C4 JUMP JUMPDEST STOP JUMPDEST PUSH1 0x0 SLOAD DUP2 JUMP JUMPDEST PUSH1 0x0 DUP1 PUSH20 0x694AA1769357215DE4FAC081BF1F309ADC325306 SWAP1 POP PUSH1 0x0 DUP2 PUSH20 0xFFFFFFFFFFFFFFFFFFFFFFFFFFFFFFFFFFFFFFFF AND PUSH4 0xFEAF968C PUSH1 0x40 MLOAD DUP2 PUSH4 0xFFFFFFFF AND PUSH1 0xE0 SHL DUP2 MSTORE PUSH1 0x4 ADD PUSH1 0xA0 PUSH1 0x40 MLOAD DUP1 DUP4 SUB DUP2 DUP7 GAS STATICCALL ISZERO DUP1 ISZERO PUSH2 0x14E JUMPI RETURNDATASIZE PUSH1 0x0 DUP1 RETURNDATACOPY RETURNDATASIZE PUSH1 0x0 REVERT JUMPDEST POP POP POP POP PUSH1 0x40 MLOAD RETURNDATASIZE PUSH1 0x1F NOT PUSH1 0x1F DUP3 ADD AND DUP3 ADD DUP1 PUSH1 0x40 MSTORE POP DUP2 ADD SWAP1 PUSH2 0x172 SWAP2 SWAP1 PUSH2 0x332 JUMP JUMPDEST POP POP POP SWAP2 POP POP PUSH5 0x2540BE400 DUP2 PUSH2 0x189 SWAP2 SWAP1 PUSH2 0x3DC JUMP JUMPDEST SWAP3 POP POP POP SWAP1 JUMP JUMPDEST PUSH1 0x0 DUP1 PUSH2 0x19B PUSH2 0xE7 JUMP JUMPDEST SWAP1 POP PUSH8 0xDE0B6B3A7640000 DUP4 DUP3 PUSH2 0x1B2 SWAP2 SWAP1 PUSH2 0x3DC JUMP JUMPDEST PUSH2 0x1BC SWAP2 SWAP1 PUSH2 0x44D JUMP JUMPDEST SWAP2 POP POP SWAP2 SWAP1 POP JUMP JUMPDEST PUSH1 0x0 SLOAD PUSH2 0x1D0 CALLVALUE PUSH2 0x190 JUMP JUMPDEST LT ISZERO PUSH2 0x211 JUMPI PUSH1 0x40 MLOAD PUSH32 0x8C379A000000000000000000000000000000000000000000000000000000000 DUP2 MSTORE PUSH1 0x4 ADD PUSH2 0x208 SWAP1 PUSH2 0x4DB JUMP JUMPDEST PUSH1 0x40 MLOAD DUP1 SWAP2 SUB SWAP1 REVERT JUMPDEST JUMP JUMPDEST PUSH1 0x0 DUP2 SWAP1 POP SWAP2 SWAP1 POP JUMP JUMPDEST PUSH2 0x226 DUP2 PUSH2 0x213 JUMP JUMPDEST DUP3 MSTORE POP POP JUMP JUMPDEST PUSH1 0x0 PUSH1 0x20 DUP3 ADD SWAP1 POP PUSH2 0x241 PUSH1 0x0 DUP4 ADD DUP5 PUSH2 0x21D JUMP JUMPDEST SWAP3 SWAP2 POP POP JUMP JUMPDEST PUSH1 0x0 DUP1 REVERT JUMPDEST PUSH2 0x255 DUP2 PUSH2 0x213 JUMP JUMPDEST DUP2 EQ PUSH2 0x260 JUMPI PUSH1 0x0 DUP1 REVERT JUMPDEST POP JUMP JUMPDEST PUSH1 0x0 DUP2 CALLDATALOAD SWAP1 POP PUSH2 0x272 DUP2 PUSH2 0x24C JUMP JUMPDEST SWAP3 SWAP2 POP POP JUMP JUMPDEST PUSH1 0x0 PUSH1 0x20 DUP3 DUP5 SUB SLT ISZERO PUSH2 0x28E JUMPI PUSH2 0x28D PUSH2 0x247 JUMP JUMPDEST JUMPDEST PUSH1 0x0 PUSH2 0x29C DUP5 DUP3 DUP6 ADD PUSH2 0x263 JUMP JUMPDEST SWAP2 POP POP SWAP3 SWAP2 POP POP JUMP JUMPDEST PUSH1 0x0 PUSH10 0xFFFFFFFFFFFFFFFFFFFF DUP3 AND SWAP1 POP SWAP2 SWAP1 POP JUMP JUMPDEST PUSH2 0x2C4 DUP2 PUSH2 0x2A5 JUMP JUMPDEST DUP2 EQ PUSH2 0x2CF JUMPI PUSH1 0x0 DUP1 REVERT JUMPDEST POP JUMP JUMPDEST PUSH1 0x0 DUP2 MLOAD SWAP1 POP PUSH2 0x2E1 DUP2 PUSH2 0x2BB JUMP JUMPDEST SWAP3 SWAP2 POP POP JUMP JUMPDEST PUSH1 0x0 DUP2 SWAP1 POP SWAP2 SWAP1 POP JUMP JUMPDEST PUSH2 0x2FA DUP2 PUSH2 0x2E7 JUMP JUMPDEST DUP2 EQ PUSH2 0x305 JUMPI PUSH1 0x0 DUP1 REVERT JUMPDEST POP JUMP JUMPDEST PUSH1 0x0 DUP2 MLOAD SWAP1 POP PUSH2 0x317 DUP2 PUSH2 0x2F1 JUMP JUMPDEST SWAP3 SWAP2 POP POP JUMP JUMPDEST PUSH1 0x0 DUP2 MLOAD SWAP1 POP PUSH2 0x32C DUP2 PUSH2 0x24C JUMP JUMPDEST SWAP3 SWAP2 POP POP JUMP JUMPDEST PUSH1 0x0 DUP1 PUSH1 0x0 DUP1 PUSH1 0x0 PUSH1 0xA0 DUP7 DUP9 SUB SLT ISZERO PUSH2 0x34E JUMPI PUSH2 0x34D PUSH2 0x247 JUMP JUMPDEST JUMPDEST PUSH1 0x0 PUSH2 0x35C DUP9 DUP3 DUP10 ADD PUSH2 0x2D2 JUMP JUMPDEST SWAP6 POP POP PUSH1 0x20 PUSH2 0x36D DUP9 DUP3 DUP10 ADD PUSH2 0x308 JUMP JUMPDEST SWAP5 POP POP PUSH1 0x40 PUSH2 0x37E DUP9 DUP3 DUP10 ADD PUSH2 0x31D JUMP JUMPDEST SWAP4 POP POP PUSH1 0x60 PUSH2 0x38F DUP9 DUP3 DUP10 ADD PUSH2 0x31D JUMP JUMPDEST SWAP3 POP POP PUSH1 0x80 PUSH2 0x3A0 DUP9 DUP3 DUP10 ADD PUSH2 0x2D2 JUMP JUMPDEST SWAP2 POP POP SWAP3 SWAP6 POP SWAP3 SWAP6 SWAP1 SWAP4 POP JUMP JUMPDEST PUSH32 0x4E487B7100000000000000000000000000000000000000000000000000000000 PUSH1 0x0 MSTORE PUSH1 0x11 PUSH1 0x4 MSTORE PUSH1 0x24 PUSH1 0x0 REVERT JUMPDEST PUSH1 0x0 PUSH2 0x3E7 DUP3 PUSH2 0x213 JUMP JUMPDEST SWAP2 POP PUSH2 0x3F2 DUP4 PUSH2 0x213 JUMP JUMPDEST SWAP3 POP DUP3 DUP3 MUL PUSH2 0x400 DUP2 PUSH2 0x213 JUMP JUMPDEST SWAP2 POP DUP3 DUP3 DIV DUP5 EQ DUP4 ISZERO OR PUSH2 0x417 JUMPI PUSH2 0x416 PUSH2 0x3AD JUMP JUMPDEST JUMPDEST POP SWAP3 SWAP2 POP POP JUMP JUMPDEST PUSH32 0x4E487B7100000000000000000000000000000000000000000000000000000000 PUSH1 0x0 MSTORE PUSH1 0x12 PUSH1 0x4 MSTORE PUSH1 0x24 PUSH1 0x0 REVERT JUMPDEST PUSH1 0x0 PUSH2 0x458 DUP3 PUSH2 0x213 JUMP JUMPDEST SWAP2 POP PUSH2 0x463 DUP4 PUSH2 0x213 JUMP JUMPDEST SWAP3 POP DUP3 PUSH2 0x473 JUMPI PUSH2 0x472 PUSH2 0x41E JUMP JUMPDEST JUMPDEST DUP3 DUP3 DIV SWAP1 POP SWAP3 SWAP2 POP POP JUMP JUMPDEST PUSH1 0x0 DUP3 DUP3 MSTORE PUSH1 0x20 DUP3 ADD SWAP1 POP SWAP3 SWAP2 POP POP JUMP JUMPDEST PUSH32 0x6469646E27742073656E6420656E6F7567682045544800000000000000000000 PUSH1 0x0 DUP3 ADD MSTORE POP JUMP JUMPDEST PUSH1 0x0 PUSH2 0x4C5 PUSH1 0x16 DUP4 PUSH2 0x47E JUMP JUMPDEST SWAP2 POP PUSH2 0x4D0 DUP3 PUSH2 0x48F JUMP JUMPDEST PUSH1 0x20 DUP3 ADD SWAP1 POP SWAP2 SWAP1 POP JUMP JUMPDEST PUSH1 0x0 PUSH1 0x20 DUP3 ADD SWAP1 POP DUP2 DUP2 SUB PUSH1 0x0 DUP4 ADD MSTORE PUSH2 0x4F4 DUP2 PUSH2 0x4B8 JUMP JUMPDEST SWAP1 POP SWAP2 SWAP1 POP JUMP INVALID LOG2 PUSH5 0x6970667358 0x22 SLT KECCAK256 0xD8 ADD 0xD6 JUMP 0xEC NUMBER 0xBD 0xF PUSH7 0x425030989059B1 CREATE2 0x29 0xE7 DUP7 DUP11 0xE1 LOG4 0x4F 0xD0 JUMP DUP3 0x24 0xC8 PUSH15 0xBF1F64736F6C634300081300330000 "
				},
				"gasEstimates": {
					"creation": {
						"codeDepositCost": "265800",
						"executionCost": "22412",
						"totalCost": "288212"
					},
					"external": {
						"convert(uint256)": "infinite",
						"fund()": "infinite",
						"getPrice()": "infinite",
						"minimumUSD()": "2407"
					}
				},
				"methodIdentifiers": {
					"convert(uint256)": "a3908e1b",
					"fund()": "b60d4288",
					"getPrice()": "98d5fdca",
					"minimumUSD()": "3430a88c"
				}
			},
			"storageLayout": {
				"storage": [
					{
						"astId": 52,
						"contract": "Fund Me/fundMe.sol:FundMe",
						"label": "minimumUSD",
						"offset": 0,
						"slot": "0",
						"type": "t_uint256"
					}
				],
				"types": {
					"t_uint256": {
						"encoding": "inplace",
						"label": "uint256",
						"numberOfBytes": "32"
					}
				}
			},
			"userdoc": {
				"kind": "user",
				"methods": {},
				"version": 1
			}
		}
	}
}