{
	"data": {
		"bytecode": {
			"linkReferences": {},
			"object": "6080604052674563918244f4000060005534801561001c57600080fd5b506107118061002c6000396000f3fe60806040526004361061003f5760003560e01c80633430a88c146100445780633e47d6f31461006f578063b60d4288146100ac578063dc0d3dff146100b6575b600080fd5b34801561005057600080fd5b506100596100f3565b6040516100669190610323565b60405180910390f35b34801561007b57600080fd5b50610096600480360381019061009191906103a1565b6100f9565b6040516100a39190610323565b60405180910390f35b6100b4610111565b005b3480156100c257600080fd5b506100dd60048036038101906100d891906103fa565b6101ee565b6040516100ea9190610436565b60405180910390f35b60005481565b60026020528060005260406000206000915090505481565b60005461011d3461022d565b101561015e576040517f08c379a0000000000000000000000000000000000000000000000000000000008152600401610155906104ae565b60405180910390fd5b34600260003373ffffffffffffffffffffffffffffffffffffffff1673ffffffffffffffffffffffffffffffffffffffff168152602001908152602001600020546101a991906104fd565b600260003373ffffffffffffffffffffffffffffffffffffffff1673ffffffffffffffffffffffffffffffffffffffff16815260200190815260200160002081905550565b600181815481106101fe57600080fd5b906000526020600020016000915054906101000a900473ffffffffffffffffffffffffffffffffffffffff1681565b600080610238610261565b9050670de0b6b3a7640000838261024f9190610531565b61025991906105a2565b915050919050565b60008073694aa1769357215de4fac081bf1f309adc325306905060008173ffffffffffffffffffffffffffffffffffffffff1663feaf968c6040518163ffffffff1660e01b815260040160a060405180830381865afa1580156102c8573d6000803e3d6000fd5b505050506040513d601f19601f820116820180604052508101906102ec9190610660565b5050509150506402540be400816103039190610531565b9250505090565b6000819050919050565b61031d8161030a565b82525050565b60006020820190506103386000830184610314565b92915050565b600080fd5b600073ffffffffffffffffffffffffffffffffffffffff82169050919050565b600061036e82610343565b9050919050565b61037e81610363565b811461038957600080fd5b50565b60008135905061039b81610375565b92915050565b6000602082840312156103b7576103b661033e565b5b60006103c58482850161038c565b91505092915050565b6103d78161030a565b81146103e257600080fd5b50565b6000813590506103f4816103ce565b92915050565b6000602082840312156104105761040f61033e565b5b600061041e848285016103e5565b91505092915050565b61043081610363565b82525050565b600060208201905061044b6000830184610427565b92915050565b600082825260208201905092915050565b7f6469646e27742073656e6420656e6f7567682045544800000000000000000000600082015250565b6000610498601683610451565b91506104a382610462565b602082019050919050565b600060208201905081810360008301526104c78161048b565b9050919050565b7f4e487b7100000000000000000000000000000000000000000000000000000000600052601160045260246000fd5b60006105088261030a565b91506105138361030a565b925082820190508082111561052b5761052a6104ce565b5b92915050565b600061053c8261030a565b91506105478361030a565b92508282026105558161030a565b9150828204841483151761056c5761056b6104ce565b5b5092915050565b7f4e487b7100000000000000000000000000000000000000000000000000000000600052601260045260246000fd5b60006105ad8261030a565b91506105b88361030a565b9250826105c8576105c7610573565b5b828204905092915050565b600069ffffffffffffffffffff82169050919050565b6105f2816105d3565b81146105fd57600080fd5b50565b60008151905061060f816105e9565b92915050565b6000819050919050565b61062881610615565b811461063357600080fd5b50565b6000815190506106458161061f565b92915050565b60008151905061065a816103ce565b92915050565b600080600080600060a0868803121561067c5761067b61033e565b5b600061068a88828901610600565b955050602061069b88828901610636565b94505060406106ac8882890161064b565b93505060606106bd8882890161064b565b92505060806106ce88828901610600565b915050929550929590935056fea2646970667358221220e1604046c73da221490523c7fede5b83ef7cdb9dbe5622c194876a0074aa7e0d64736f6c63430008130033",
			"opcodes": "PUSH1 0x80 PUSH1 0x40 MSTORE PUSH8 0x4563918244F40000 PUSH1 0x0 SSTORE CALLVALUE DUP1 ISZERO PUSH2 0x1C JUMPI PUSH1 0x0 DUP1 REVERT JUMPDEST POP PUSH2 0x711 DUP1 PUSH2 0x2C PUSH1 0x0 CODECOPY PUSH1 0x0 RETURN INVALID PUSH1 0x80 PUSH1 0x40 MSTORE PUSH1 0x4 CALLDATASIZE LT PUSH2 0x3F JUMPI PUSH1 0x0 CALLDATALOAD PUSH1 0xE0 SHR DUP1 PUSH4 0x3430A88C EQ PUSH2 0x44 JUMPI DUP1 PUSH4 0x3E47D6F3 EQ PUSH2 0x6F JUMPI DUP1 PUSH4 0xB60D4288 EQ PUSH2 0xAC JUMPI DUP1 PUSH4 0xDC0D3DFF EQ PUSH2 0xB6 JUMPI JUMPDEST PUSH1 0x0 DUP1 REVERT JUMPDEST CALLVALUE DUP1 ISZERO PUSH2 0x50 JUMPI PUSH1 0x0 DUP1 REVERT JUMPDEST POP PUSH2 0x59 PUSH2 0xF3 JUMP JUMPDEST PUSH1 0x40 MLOAD PUSH2 0x66 SWAP2 SWAP1 PUSH2 0x323 JUMP JUMPDEST PUSH1 0x40 MLOAD DUP1 SWAP2 SUB SWAP1 RETURN JUMPDEST CALLVALUE DUP1 ISZERO PUSH2 0x7B JUMPI PUSH1 0x0 DUP1 REVERT JUMPDEST POP PUSH2 0x96 PUSH1 0x4 DUP1 CALLDATASIZE SUB DUP2 ADD SWAP1 PUSH2 0x91 SWAP2 SWAP1 PUSH2 0x3A1 JUMP JUMPDEST PUSH2 0xF9 JUMP JUMPDEST PUSH1 0x40 MLOAD PUSH2 0xA3 SWAP2 SWAP1 PUSH2 0x323 JUMP JUMPDEST PUSH1 0x40 MLOAD DUP1 SWAP2 SUB SWAP1 RETURN JUMPDEST PUSH2 0xB4 PUSH2 0x111 JUMP JUMPDEST STOP JUMPDEST CALLVALUE DUP1 ISZERO PUSH2 0xC2 JUMPI PUSH1 0x0 DUP1 REVERT JUMPDEST POP PUSH2 0xDD PUSH1 0x4 DUP1 CALLDATASIZE SUB DUP2 ADD SWAP1 PUSH2 0xD8 SWAP2 SWAP1 PUSH2 0x3FA JUMP JUMPDEST PUSH2 0x1EE JUMP JUMPDEST PUSH1 0x40 MLOAD PUSH2 0xEA SWAP2 SWAP1 PUSH2 0x436 JUMP JUMPDEST PUSH1 0x40 MLOAD DUP1 SWAP2 SUB SWAP1 RETURN JUMPDEST PUSH1 0x0 SLOAD DUP2 JUMP JUMPDEST PUSH1 0x2 PUSH1 0x20 MSTORE DUP1 PUSH1 0x0 MSTORE PUSH1 0x40 PUSH1 0x0 KECCAK256 PUSH1 0x0 SWAP2 POP SWAP1 POP SLOAD DUP2 JUMP JUMPDEST PUSH1 0x0 SLOAD PUSH2 0x11D CALLVALUE PUSH2 0x22D JUMP JUMPDEST LT ISZERO PUSH2 0x15E JUMPI PUSH1 0x40 MLOAD PUSH32 0x8C379A000000000000000000000000000000000000000000000000000000000 DUP2 MSTORE PUSH1 0x4 ADD PUSH2 0x155 SWAP1 PUSH2 0x4AE JUMP JUMPDEST PUSH1 0x40 MLOAD DUP1 SWAP2 SUB SWAP1 REVERT JUMPDEST CALLVALUE PUSH1 0x2 PUSH1 0x0 CALLER PUSH20 0xFFFFFFFFFFFFFFFFFFFFFFFFFFFFFFFFFFFFFFFF AND PUSH20 0xFFFFFFFFFFFFFFFFFFFFFFFFFFFFFFFFFFFFFFFF AND DUP2 MSTORE PUSH1 0x20 ADD SWAP1 DUP2 MSTORE PUSH1 0x20 ADD PUSH1 0x0 KECCAK256 SLOAD PUSH2 0x1A9 SWAP2 SWAP1 PUSH2 0x4FD JUMP JUMPDEST PUSH1 0x2 PUSH1 0x0 CALLER PUSH20 0xFFFFFFFFFFFFFFFFFFFFFFFFFFFFFFFFFFFFFFFF AND PUSH20 0xFFFFFFFFFFFFFFFFFFFFFFFFFFFFFFFFFFFFFFFF AND DUP2 MSTORE PUSH1 0x20 ADD SWAP1 DUP2 MSTORE PUSH1 0x20 ADD PUSH1 0x0 KECCAK256 DUP2 SWAP1 SSTORE POP JUMP JUMPDEST PUSH1 0x1 DUP2 DUP2 SLOAD DUP2 LT PUSH2 0x1FE JUMPI PUSH1 0x0 DUP1 REVERT JUMPDEST SWAP1 PUSH1 0x0 MSTORE PUSH1 0x20 PUSH1 0x0 KECCAK256 ADD PUSH1 0x0 SWAP2 POP SLOAD SWAP1 PUSH2 0x100 EXP SWAP1 DIV PUSH20 0xFFFFFFFFFFFFFFFFFFFFFFFFFFFFFFFFFFFFFFFF AND DUP2 JUMP JUMPDEST PUSH1 0x0 DUP1 PUSH2 0x238 PUSH2 0x261 JUMP JUMPDEST SWAP1 POP PUSH8 0xDE0B6B3A7640000 DUP4 DUP3 PUSH2 0x24F SWAP2 SWAP1 PUSH2 0x531 JUMP JUMPDEST PUSH2 0x259 SWAP2 SWAP1 PUSH2 0x5A2 JUMP JUMPDEST SWAP2 POP POP SWAP2 SWAP1 POP JUMP JUMPDEST PUSH1 0x0 DUP1 PUSH20 0x694AA1769357215DE4FAC081BF1F309ADC325306 SWAP1 POP PUSH1 0x0 DUP2 PUSH20 0xFFFFFFFFFFFFFFFFFFFFFFFFFFFFFFFFFFFFFFFF AND PUSH4 0xFEAF968C PUSH1 0x40 MLOAD DUP2 PUSH4 0xFFFFFFFF AND PUSH1 0xE0 SHL DUP2 MSTORE PUSH1 0x4 ADD PUSH1 0xA0 PUSH1 0x40 MLOAD DUP1 DUP4 SUB DUP2 DUP7 GAS STATICCALL ISZERO DUP1 ISZERO PUSH2 0x2C8 JUMPI RETURNDATASIZE PUSH1 0x0 DUP1 RETURNDATACOPY RETURNDATASIZE PUSH1 0x0 REVERT JUMPDEST POP POP POP POP PUSH1 0x40 MLOAD RETURNDATASIZE PUSH1 0x1F NOT PUSH1 0x1F DUP3 ADD AND DUP3 ADD DUP1 PUSH1 0x40 MSTORE POP DUP2 ADD SWAP1 PUSH2 0x2EC SWAP2 SWAP1 PUSH2 0x660 JUMP JUMPDEST POP POP POP SWAP2 POP POP PUSH5 0x2540BE400 DUP2 PUSH2 0x303 SWAP2 SWAP1 PUSH2 0x531 JUMP JUMPDEST SWAP3 POP POP POP SWAP1 JUMP JUMPDEST PUSH1 0x0 DUP2 SWAP1 POP SWAP2 SWAP1 POP JUMP JUMPDEST PUSH2 0x31D DUP2 PUSH2 0x30A JUMP JUMPDEST DUP3 MSTORE POP POP JUMP JUMPDEST PUSH1 0x0 PUSH1 0x20 DUP3 ADD SWAP1 POP PUSH2 0x338 PUSH1 0x0 DUP4 ADD DUP5 PUSH2 0x314 JUMP JUMPDEST SWAP3 SWAP2 POP POP JUMP JUMPDEST PUSH1 0x0 DUP1 REVERT JUMPDEST PUSH1 0x0 PUSH20 0xFFFFFFFFFFFFFFFFFFFFFFFFFFFFFFFFFFFFFFFF DUP3 AND SWAP1 POP SWAP2 SWAP1 POP JUMP JUMPDEST PUSH1 0x0 PUSH2 0x36E DUP3 PUSH2 0x343 JUMP JUMPDEST SWAP1 POP SWAP2 SWAP1 POP JUMP JUMPDEST PUSH2 0x37E DUP2 PUSH2 0x363 JUMP JUMPDEST DUP2 EQ PUSH2 0x389 JUMPI PUSH1 0x0 DUP1 REVERT JUMPDEST POP JUMP JUMPDEST PUSH1 0x0 DUP2 CALLDATALOAD SWAP1 POP PUSH2 0x39B DUP2 PUSH2 0x375 JUMP JUMPDEST SWAP3 SWAP2 POP POP JUMP JUMPDEST PUSH1 0x0 PUSH1 0x20 DUP3 DUP5 SUB SLT ISZERO PUSH2 0x3B7 JUMPI PUSH2 0x3B6 PUSH2 0x33E JUMP JUMPDEST JUMPDEST PUSH1 0x0 PUSH2 0x3C5 DUP5 DUP3 DUP6 ADD PUSH2 0x38C JUMP JUMPDEST SWAP2 POP POP SWAP3 SWAP2 POP POP JUMP JUMPDEST PUSH2 0x3D7 DUP2 PUSH2 0x30A JUMP JUMPDEST DUP2 EQ PUSH2 0x3E2 JUMPI PUSH1 0x0 DUP1 REVERT JUMPDEST POP JUMP JUMPDEST PUSH1 0x0 DUP2 CALLDATALOAD SWAP1 POP PUSH2 0x3F4 DUP2 PUSH2 0x3CE JUMP JUMPDEST SWAP3 SWAP2 POP POP JUMP JUMPDEST PUSH1 0x0 PUSH1 0x20 DUP3 DUP5 SUB SLT ISZERO PUSH2 0x410 JUMPI PUSH2 0x40F PUSH2 0x33E JUMP JUMPDEST JUMPDEST PUSH1 0x0 PUSH2 0x41E DUP5 DUP3 DUP6 ADD PUSH2 0x3E5 JUMP JUMPDEST SWAP2 POP POP SWAP3 SWAP2 POP POP JUMP JUMPDEST PUSH2 0x430 DUP2 PUSH2 0x363 JUMP JUMPDEST DUP3 MSTORE POP POP JUMP JUMPDEST PUSH1 0x0 PUSH1 0x20 DUP3 ADD SWAP1 POP PUSH2 0x44B PUSH1 0x0 DUP4 ADD DUP5 PUSH2 0x427 JUMP JUMPDEST SWAP3 SWAP2 POP POP JUMP JUMPDEST PUSH1 0x0 DUP3 DUP3 MSTORE PUSH1 0x20 DUP3 ADD SWAP1 POP SWAP3 SWAP2 POP POP JUMP JUMPDEST PUSH32 0x6469646E27742073656E6420656E6F7567682045544800000000000000000000 PUSH1 0x0 DUP3 ADD MSTORE POP JUMP JUMPDEST PUSH1 0x0 PUSH2 0x498 PUSH1 0x16 DUP4 PUSH2 0x451 JUMP JUMPDEST SWAP2 POP PUSH2 0x4A3 DUP3 PUSH2 0x462 JUMP JUMPDEST PUSH1 0x20 DUP3 ADD SWAP1 POP SWAP2 SWAP1 POP JUMP JUMPDEST PUSH1 0x0 PUSH1 0x20 DUP3 ADD SWAP1 POP DUP2 DUP2 SUB PUSH1 0x0 DUP4 ADD MSTORE PUSH2 0x4C7 DUP2 PUSH2 0x48B JUMP JUMPDEST SWAP1 POP SWAP2 SWAP1 POP JUMP JUMPDEST PUSH32 0x4E487B7100000000000000000000000000000000000000000000000000000000 PUSH1 0x0 MSTORE PUSH1 0x11 PUSH1 0x4 MSTORE PUSH1 0x24 PUSH1 0x0 REVERT JUMPDEST PUSH1 0x0 PUSH2 0x508 DUP3 PUSH2 0x30A JUMP JUMPDEST SWAP2 POP PUSH2 0x513 DUP4 PUSH2 0x30A JUMP JUMPDEST SWAP3 POP DUP3 DUP3 ADD SWAP1 POP DUP1 DUP3 GT ISZERO PUSH2 0x52B JUMPI PUSH2 0x52A PUSH2 0x4CE JUMP JUMPDEST JUMPDEST SWAP3 SWAP2 POP POP JUMP JUMPDEST PUSH1 0x0 PUSH2 0x53C DUP3 PUSH2 0x30A JUMP JUMPDEST SWAP2 POP PUSH2 0x547 DUP4 PUSH2 0x30A JUMP JUMPDEST SWAP3 POP DUP3 DUP3 MUL PUSH2 0x555 DUP2 PUSH2 0x30A JUMP JUMPDEST SWAP2 POP DUP3 DUP3 DIV DUP5 EQ DUP4 ISZERO OR PUSH2 0x56C JUMPI PUSH2 0x56B PUSH2 0x4CE JUMP JUMPDEST JUMPDEST POP SWAP3 SWAP2 POP POP JUMP JUMPDEST PUSH32 0x4E487B7100000000000000000000000000000000000000000000000000000000 PUSH1 0x0 MSTORE PUSH1 0x12 PUSH1 0x4 MSTORE PUSH1 0x24 PUSH1 0x0 REVERT JUMPDEST PUSH1 0x0 PUSH2 0x5AD DUP3 PUSH2 0x30A JUMP JUMPDEST SWAP2 POP PUSH2 0x5B8 DUP4 PUSH2 0x30A JUMP JUMPDEST SWAP3 POP DUP3 PUSH2 0x5C8 JUMPI PUSH2 0x5C7 PUSH2 0x573 JUMP JUMPDEST JUMPDEST DUP3 DUP3 DIV SWAP1 POP SWAP3 SWAP2 POP POP JUMP JUMPDEST PUSH1 0x0 PUSH10 0xFFFFFFFFFFFFFFFFFFFF DUP3 AND SWAP1 POP SWAP2 SWAP1 POP JUMP JUMPDEST PUSH2 0x5F2 DUP2 PUSH2 0x5D3 JUMP JUMPDEST DUP2 EQ PUSH2 0x5FD JUMPI PUSH1 0x0 DUP1 REVERT JUMPDEST POP JUMP JUMPDEST PUSH1 0x0 DUP2 MLOAD SWAP1 POP PUSH2 0x60F DUP2 PUSH2 0x5E9 JUMP JUMPDEST SWAP3 SWAP2 POP POP JUMP JUMPDEST PUSH1 0x0 DUP2 SWAP1 POP SWAP2 SWAP1 POP JUMP JUMPDEST PUSH2 0x628 DUP2 PUSH2 0x615 JUMP JUMPDEST DUP2 EQ PUSH2 0x633 JUMPI PUSH1 0x0 DUP1 REVERT JUMPDEST POP JUMP JUMPDEST PUSH1 0x0 DUP2 MLOAD SWAP1 POP PUSH2 0x645 DUP2 PUSH2 0x61F JUMP JUMPDEST SWAP3 SWAP2 POP POP JUMP JUMPDEST PUSH1 0x0 DUP2 MLOAD SWAP1 POP PUSH2 0x65A DUP2 PUSH2 0x3CE JUMP JUMPDEST SWAP3 SWAP2 POP POP JUMP JUMPDEST PUSH1 0x0 DUP1 PUSH1 0x0 DUP1 PUSH1 0x0 PUSH1 0xA0 DUP7 DUP9 SUB SLT ISZERO PUSH2 0x67C JUMPI PUSH2 0x67B PUSH2 0x33E JUMP JUMPDEST JUMPDEST PUSH1 0x0 PUSH2 0x68A DUP9 DUP3 DUP10 ADD PUSH2 0x600 JUMP JUMPDEST SWAP6 POP POP PUSH1 0x20 PUSH2 0x69B DUP9 DUP3 DUP10 ADD PUSH2 0x636 JUMP JUMPDEST SWAP5 POP POP PUSH1 0x40 PUSH2 0x6AC DUP9 DUP3 DUP10 ADD PUSH2 0x64B JUMP JUMPDEST SWAP4 POP POP PUSH1 0x60 PUSH2 0x6BD DUP9 DUP3 DUP10 ADD PUSH2 0x64B JUMP JUMPDEST SWAP3 POP POP PUSH1 0x80 PUSH2 0x6CE DUP9 DUP3 DUP10 ADD PUSH2 0x600 JUMP JUMPDEST SWAP2 POP POP SWAP3 SWAP6 POP SWAP3 SWAP6 SWAP1 SWAP4 POP JUMP INVALID LOG2 PUSH5 0x6970667358 0x22 SLT KECCAK256 0xE1 PUSH1 0x40 CHAINID 0xC7 RETURNDATASIZE LOG2 0x21 0x49 SDIV 0x23 0xC7 INVALID 0xDE JUMPDEST DUP4 0xEF PUSH29 0xDB9DBE5622C194876A0074AA7E0D64736F6C6343000813003300000000 "
		},
		"gasEstimates": {
			"creation": {
				"codeDepositCost": "361800",
				"executionCost": "22505",
				"totalCost": "384305"
			},
			"external": {
				"addressToAmountFunded(address)": "2814",
				"fund()": "infinite",
				"funders(uint256)": "5000",
				"minimumUSD()": "2407"
			}
		},
		"methodIdentifiers": {
			"addressToAmountFunded(address)": "3e47d6f3",
			"fund()": "b60d4288",
			"funders(uint256)": "dc0d3dff",
			"minimumUSD()": "3430a88c"
		}
	},
	"abi": [
		{
			"inputs": [
				{
					"internalType": "address",
					"name": "",
					"type": "address"
				}
			],
			"name": "addressToAmountFunded",
			"outputs": [
				{
					"internalType": "uint256",
					"name": "",
					"type": "uint256"
				}
			],
			"stateMutability": "view",
			"type": "function"
		},
		{
			"inputs": [],
			"name": "fund",
			"outputs": [],
			"stateMutability": "payable",
			"type": "function"
		},
		{
			"inputs": [
				{
					"internalType": "uint256",
					"name": "",
					"type": "uint256"
				}
			],
			"name": "funders",
			"outputs": [
				{
					"internalType": "address",
					"name": "",
					"type": "address"
				}
			],
			"stateMutability": "view",
			"type": "function"
		},
		{
			"inputs": [],
			"name": "minimumUSD",
			"outputs": [
				{
					"internalType": "uint256",
					"name": "",
					"type": "uint256"
				}
			],
			"stateMutability": "view",
			"type": "function"
		}
	]
}